:020000040800F2
:1000000000040020C1020008C3020008C302000867
:10001000C3020008C3020008C3020008C3020008AC
:10002000C3020008C3020008C3020008E1C10008BF
:10003000C3020008C3020008C3020008C30200088C
:10004000C3020008C3020008C3020008C30200087C
:10005000C3020008C3020008C3020008C30200086C
:10006000C3020008C3020008C30200082DD4000820
:1000700041D4000855D4000869D400087DD4000894
:1000800091D40008A5D40008C3020008C3020008E8
:10009000C3020008C3020008C3020008C30200082C
:1000A000C9CE0008CDCE0008D1CE0008D5CE0008BC
:1000B00019DA0008EDDD000801DE000861D600084D
:1000C00069D70008C3020008C3020008C302000881
:1000D000C3020008C3020008C3020008C3020008EC
:1000E000C3020008C3020008C3020008C3020008DC
:1000F000CDDB0008C3020008C3020008C3020008E9
:10010000C3020008C3020008C3020008C3020008BB
:10011000C3020008C3020008A5DB0008B9DB000821
:10012000B9D40008CDD40008E1D40008F5D4000803
:1001300009D50008C3020008C3020008C302000872
:10014000C3020008C3020008C3020008C30200087B
:10015000C3020008C3020008C3020008C30200086B
:10016000C3020008C3020008C302000855DE0008ED
:10017000C3020008C3020008C3020008C30200084B
:10018000C3020008C3020008C3020008C30200083B
:10019000C3020008C3020008C3020008C30200082B
:1001A00072B6394880F30888384880F3098838489F
:1001B0004EF60851CEF20001086040F20000CCF289
:1001C00000004EF63471CEF200010860BFF34F8F8D
:1001D000BFF36F8F40F20000C0F2F0004EF688517E
:1001E000CEF200010860BFF34F8FBFF36F8F4FF067
:1001F0000000E1EE100A4EF63C71CEF200010860FC
:10020000062080F31488BFF36F8F0BF037FD0BF0DF
:10021000EDFA4FF055301F491B4A91423CBF41F85F
:10022000040BFAE71C49194A91423CBF41F8040B00
:10023000FAE71A491A4A1B4B9A423EBF51F8040B7F
:1002400042F8040BF8E700201749184A91423CBFD6
:1002500041F8040BFAE70BF015FD0BF010FD144C00
:10026000144DAC4203DA54F8041B8847F9E705F053
:1002700097FB114C114DAC4203DA54F8041B88472C
:10028000F9E70BF0FDBC000000040020000C00208A
:10029000000000080000002000040020E0FF00082B
:1002A000000C0020C4110020C8110020D02A00201A
:1002B000A0010008A0010008A0010008A00100089A
:1002C0006EE700F000F8FEE72DE9F04F2DED108A03
:1002D000C1F80CD0C3689D46BDEC108ABDE8F08F14
:1002E000002383F311882846A04700200BF0F0FE7E
:1002F000FEE70BF0A8FE00DFFEE7000000000000B4
:10030000F8B52DED028B57EC106B55EC114B00F04E
:10031000C7F8614BB0EE408AF0EE608A93F9003086
:1003200001332AD022462B462046294601F084FC80
:1003300018BB32463B463046394601F07DFC00286A
:1003400044D1002200233046394601F043FCD8B1A5
:10035000002200232046294601F03CFC00283DD124
:1003600045EC104B00F0DEFE38B120462946002255
:10037000002301F039FC00285BD1B0EE480AF0EE12
:10038000680ABDEC028BF8BDB0EE480AF0EE680AD0
:1003900000F0C8FE58B30022002351EC180B01F006
:1003A00019FC0028E9D047EC106B00F0BBFE0028D8
:1003B000E3D045EC104B00F0B5FE0028DDD001F095
:1003C000C3FC222303609FED2C8BD6E720462946F1
:1003D0000022002301F0FEFB0028CED09FED288BE9
:1003E000B0EE480AF0EE680ABDEC028BF8BD47ECAF
:1003F000106B00F097FE0028CDD045EC104B00F0BC
:1004000091FE0028C7D053EC182B18EE100A19469D
:1004100001F012FC18BB01F097FC222303600022BC
:1004200000233046394601F0DFFB48B99FED168BBB
:10043000A3E701F089FC212303609FED158B9CE766
:1004400045EC104B00F080FE22462B4651EC100B81
:1004500001F0C0FB0028E9D19FED0D8B8DE701F085
:1004600073FC00220023212101601046194601F08F
:1004700073FA41EC180B80E7000000000000000058
:10048000000000000000F03F000000000000F07FCE
:10049000000000000000F0FF000C00200000000041
:1004A0002DE9F04F51EC110B21F0004555EA000306
:1004B00093B03DD059EC108B694B29F000449C421D
:1004C0004E4610EE10AA2CDC0F4611EE10CA36D0A4
:1004D0009D4226DC624B9D4220D0002ECDE90001DA
:1004E00038DB4FF0000BBCF1000F4ED15C4B9D424E
:1004F00000F094805B4B9D4200F0A180B7F1804FEB
:1005000000F09E84584B9F423FD1002E3DDB49ECCA
:10051000108B13B0BDE8F04F00F02EBDBCF1000F02
:10052000DBD004F1404404F5801454EA0A030BD1F3
:100530004C49002041EC100B13B0BDE8F08FB8F12E
:10054000000F01D1A542C5DD484813B0BDE8F04F0A
:1005500000F0F2BD464B9D4277DCA3F154739D42FF
:100560000EDD2B15A3F2FF33142B40F37184C3F17E
:1005700034032CFA03F202FA03F3634500F0B78464
:100580004FF0000BBCF1000FB4D049EC108B00F021
:10059000BFFD51EC100BBAF1000F22D124B1314B49
:1005A00026F040429A421CD1002F05DA02460B4643
:1005B00000202C4901F0D0F9002EBBDA04F14044B0
:1005C00004F5801454EA0B0340F0648402460B46A1
:1005D0001046194600F0DEFE02460B4601F0BCF95B
:1005E000A8E7F30F03F1FF3A5BEA0A0330D0214B8F
:1005F0009D4243DD03F104739D4240F3AF831E4BE4
:100600009C4240F33B83002F40F33B8312A3D3E98A
:1006100000231046194601F075F88BE704F14043BA
:1006200003F5801353EA0A0382D0134B9C4240F334
:100630005383002FC0F22583DDE900017AE7002F04
:10064000C0F2F6834046494674E74FF0020B4AE792
:1006500042464B46BCE700BF9C7500883CE4377EB1
:100660000000F07F0000F03F0000E03F68FF00085E
:10067000FFFF3F430000E041FFFFEF3FD24B33401D
:10068000002B40F0D3830022D04B01F03BF86FF0F9
:1006900034060C462315CE4AC4F31304A3F2FF33E9
:1006A00044F07F559E1994420D9645F4401540F351
:1006B000B083C84B9C4240F3F6839FEDAD7B8DED3C
:1006C000087B8DED107B9FEDAC7B8DED067B0136BD
:1006D0000D96A5F580154FF00008DDE906232946A3
:1006E000064600F057FEDDE90623CDE90A01304653
:1006F000294600F051FE02460B460020B64901F0A3
:100700002BF903460C46CDE90E3402460B46DDE9D3
:100710000A0100F0F7FF6B1043F0005303F50023CC
:100720000A462F46014603EB08050023CDE90212D5
:100730000293DDE902890024CDE904122B4622460A
:100740004046494600F0DEFF02460B46DDE90A015D
:1007500000F020FEDDE90623CDE90A012046294606
:1007600000F018FE02460B463046394600F012FEF5
:1007700042464B4600F0C6FF02460B46DDE90A0141
:1007800000F008FEDDE90E2300F0BCFFDDE90445C2
:10079000CDE9060122462B462046294600F0B2FF4D
:1007A00077A3D3E9002304460D4600F0ABFF76A300
:1007B000D3E9002300F0F0FD22462B4600F0A2FF13
:1007C00073A3D3E9002300F0E7FD22462B4600F097
:1007D00099FF71A3D3E9002300F0DEFD22462B46EA
:1007E00000F090FF6EA3D3E9002300F0D5FD224670
:1007F0002B4600F087FF6CA3D3E9002300F0CCFD6B
:10080000224606460F462B462046294600F07AFF30
:1008100002460B463046394600F074FF4246044615
:100820000D464B46DDE9040100F0B6FDDDE9062387
:1008300000F068FF22462B4600F0AEFD4246064619
:100840000F464B464046494600F05CFF0022634B92
:10085000CDE90A0100F0A0FD32463B4600F09CFDC8
:1008600002980D46044622462B464046494600F073
:1008700049FF002280468946584B2046294600F011
:1008800089FDDDE90A2300F085FD02460B4630466E
:10089000394600F07FFDDDE9042300F033FF2246F6
:1008A00006460F462B46DDE9060100F02BFF024607
:1008B0000B463046394600F06FFD06460F460246AD
:1008C0000B464046494600F067FD029838A3D3E93D
:1008D000002304460D4600F015FF4246CDE9040111
:1008E0004B462046294600F055FD02460B46304651
:1008F000394600F04FFD30A3D3E9002300F002FF9A
:100900002FA3D3E9002306460F462046294600F0D0
:10091000F9FE02460B463046394600F03DFDDDE962
:10092000102300F039FD04460D980D4600F080FEBE
:10093000224606460F462B46DDE9040100F02CFD59
:10094000DDE9082300F028FD32463B4600F024FD97
:10095000029832463B468046894600F01BFDDDE9A1
:10096000082300F017FDDDE9042339E0AFF3008030
:100970000000000000000000000000000000F03F48
:10098000EF4E454A287ECA3F65DBC9934A86CD3F74
:1009900001411DA96074D13F4D268F515555D53F5A
:1009A000FFAB6FDBB66DDB3F033333333333E33FF2
:1009B000000000E009C7EE3FFD033ADC09C7EE3F47
:1009C000F5015B14E02F3EBE0000F07F00004043C5
:1009D0008E98030079B60B000000F03F000008403D
:1009E00000F0D8FC0B4602462946204600F0D2FC17
:1009F0000BF1FF3353EA0A03CDE9020140F06781AE
:100A00009FEDB97B8DED047BDDE9002300261046C8
:100A1000194632461F4600F0BDFC42464B4600F0E8
:100A200071FEDDE9002382468B46DDE9020100F01C
:100A300069FE02460B465046594600F0ADFC324670
:100A40008B4682463B4640464946CDE900AB00F026
:100A500059FE0B460246804689465046594600F0EC
:100A60009BFCB94B994204460D468B4640F30C81E2
:100A700001F13F4303F5E003034340F0FD819CA3F4
:100A8000D3E90023DDE9000100F086FC424606467A
:100A90000F464B462046294600F07CFC02460B469A
:100AA0003046394601F0BEF8002840F0E581CBF32E
:100AB0000A534FF48012A3F2FE3342FA03F35B446D
:100AC000C3F30A52A14DA2F2FF321541C3F313043E
:100AD00023EA05010020C2F1140A44F48014BBF19A
:100AE000000F02460B4644FA0AFA40464946B8BF90
:100AF000CAF1000A00F04EFC804689464246DDE914
:100B000000014B4600F048FC4FEA0A5B0D4600240A
:100B100079A3D3E900232046294600F0F3FD42469D
:100B200006460F464B462046294600F033FC024657
:100B30000B46DDE9000100F02DFC71A3D3E9002391
:100B400000F0E0FD70A3D3E90023804689462046EB
:100B5000294600F0D7FD02460B464046494600F0C4
:100B60001BFC8046894602460B463046394600F05B
:100B700013FC32463B4604460D4600F00BFC024691
:100B80000B464046494600F005FC22468046894611
:100B90002B462046294600F0B5FD5DA3D3E900238E
:100BA00006460F4600F0AEFD5BA3D3E9002300F03C
:100BB000F1FB32463B4600F0A5FD59A3D3E90023E3
:100BC00000F0EAFB32463B4600F09CFD56A3D3E919
:100BD000002300F0DFFB32463B4600F093FD54A3B8
:100BE000D3E9002300F0D8FB32463B4600F08AFDF3
:100BF00002460B462046294600F0CCFB06460F462F
:100C000002460B462046294600F07CFD0022CDE935
:100C100000014FF080433046394600F0BBFB0246EE
:100C20000B46DDE9000100F097FE424606460F46FE
:100C30004B462046294600F065FD42464B4600F0F3
:100C4000ABFB02460B463046394600F0A3FB22467A
:100C50002B4600F09FFB02460B4600203C4900F06B
:100C600099FB8B44BBF5801F02460B46C0F23781CF
:100C70005946DDE9042300F045FD5BE4002FFFF653
:100C8000C5AC0020002155E4DFF8CCC021F00043C2
:100C9000634540F3EB802F4B0B4403430AD142469C
:100CA0004B4600F077FBDDE9002300F0B1FF0028A0
:100CB0003FF4FDAEDDE904011FA3D3E9002300F0FA
:100CC00021FD1DA3D3E9002300F01CFD32E49FEDBC
:100CD0001C7B8DED047B97E6002FD2DADDE9003432
:100CE000184604F1004125E4000000000000F0BFB8
:100CF000FE822B654715973C00000000432EE63F1F
:100D0000EF39FAFE422EE63F396CA80C615C20BE3A
:100D1000D0A4BE726937663EF16BD2C541BDBB3E01
:100D20002CDE25AF6A56113F93BDBE166CC1663FDF
:100D30003E5555555555C53F59F3F8C21F6EA5018F
:100D4000000000000000F03FFFFF8F40FFFF0F009A
:100D50000000F03F00346F3FFFCB9040824B9C423D
:100D60008CDD824B9C423FF74EAC00227F4B00F063
:100D700011FB69A3D3E9002304460D4600F0C2FC31
:100D800067A3D3E9002306460F462046294600F014
:100D9000B9FC002280468946754B2046294600F062
:100DA000B1FC02460B4660A1D1E9000100F0F2FA65
:100DB00022462B4600F0A6FC02460B4600206D4959
:100DC00000F0E8FA2246CDE902012B4620462946EA
:100DD00000F098FC02460B46DDE9020100F092FCAF
:100DE00053A3D3E9002300F08DFC02460B46404696
:100DF000494600F0CFFA02460B4604460D463046FF
:100E0000394600F0C9FA00208046894632463B4602
:100E1000E6E59FED497B8DED087B8DED107B9FED29
:100E2000487B4FF000088DED067B56E4002631E448
:100E300042464B4600204D4900F08EFDFFF77ABB3D
:100E400042464B464046494600F05CFCFFF772BB09
:100E5000BCF1000F36D1C3F1140345FA03F202FAD4
:100E600003F3AB424DD0E346FFF744BB414A934204
:100E70004DDCB346B2464AE6DDE9040132A3D3E9CC
:100E8000002300F03FFC30A3D3E9002300F03AFC3C
:100E9000FFF750BBBBF1010F7FF44CAB01F10043F6
:100EA0001946FFF747BB9FED2A7B8DED087B9FED31
:100EB0002A7B8DED107B9FED2A7B4FF480288DEDF2
:100EC000067B0AE449EC108B00F022F951EC100B80
:100ED000BAF1000F7FF4BCABD346FFF75FBB5046BF
:100EE00043EC102B00F0C0F951EC100BC1E602F0FE
:100EF0000102C2F1020BBCF1000F3FF4FBAAFFF7A5
:100F000044BB02F00102C2F1020BFFF7F3BA1B155A
:100F1000CFE500BFAFF30080000000604715F73F4A
:100F200044DF5DF80BAE543E555555555555D53FEC
:100F3000FE822B654715F73F00000000000000000F
:100F4000000000000000F03F9C7500883CE4377E04
:100F50000000004003B8E23F06D0CF43EBFD4C3E1B
:100F6000000000000000F83FFEFFEF3F0000F03FF0
:100F70000000D03F0000E03F2DE9F041634955EC0F
:100F8000104BA94300F09F80002D2B4610EE102A35
:100F900052DD5FEA255E00F0B180C3F31303AEF2C9
:100FA000FF3E43F48013D10F1EF0010F01EB43030A
:100FB0004FEA420403D0E40F04EB430394004FF0E4
:100FC000000C4FEA6E0E664616254FF40012B1185B
:100FD000994202DC5B1A8E1894445B00013D03EBDE
:100FE000D4734FEA52024FEA4404F0D12F46202036
:100FF0004FF0004209E041D0E10F01384FEA5202C0
:1010000001EB43034FEA440441D0B34202EB050134
:10101000F1DD002901EB020509DBB0469B1BA14273
:1010200088BF03F1FF33641A17444646E4E7002DF6
:10103000F3DB06F10108F1E725F00041214339D047
:10104000002D50D1D40A153B52052146002CF9D071
:10105000E50256D4002000E028464900CC0200F109
:101060000105F9D50C461146AA40C5F1200521FA23
:1010700005F5A3EB000E45EA04038EE7A142BBD8B9
:10108000002901EB0205D2DB98460023CBE723437E
:1010900012D178084FEA6C0101F17F511CF0010F69
:1010A00001F5001118BF40F0004001EB0E5302465D
:1010B00043EC102BBDE8F0817B1C16BF781C0CF1B3
:1010C000010C4008E6E710EE102A2B4610EE100A3D
:1010D000294600F017FB22462B4600F05DF941EC53
:1010E000100BBDE8F0812046294600F053F9024676
:1010F0000B4600F031FC41EC100BDBE72946734650
:10110000A8E7114620254FF0FF30B0E70000F07F40
:1011100051EC100B10EE102A21F0004343EC102B81
:10112000704700BF10EE903A43F0004000F5801089
:10113000C00F7047000000009FED010B704700BF1B
:10114000000000000000F87FF0B553EC102BC3F353
:101150000A56A6F2FF30132883B019464FEAD3741B
:1011600010EE105A37DC00282DDB3D4E064103EA15
:10117000060717432BD0760833401D430CD04FF49D
:101180008023132821EA060643FA00F141EA06010A
:101190000CBF4FF000450025324800EBC4042A463E
:1011A000D4E900450B462046294600F0F5F8CDE984
:1011B000000122462B46DDE9000100F0EBF841EC8E
:1011C000100B03B0F0BD23F00040104322D143ECDC
:1011D000102B03B0F0BD332809DDB0F5806FF6D1D8
:1011E00010EE100A00F0D8F841EC100BF1E7A6F26F
:1011F00013464FF0FF30F0400242E8D04008024270
:10120000CAD04FF0804325EA000043FA06F640EAD0
:101210000605C1E7C3F313001043454205431148D7
:1012200000EBC400D0E90067590C2D0B490405F40C
:10123000002545EA01033046394600F0ADF8CDE916
:1012400000013B463246DDE9000100F0A3F821F041
:10125000004343EAC47141EC100B03B0F0BD00BF82
:10126000FFFF0F00E8E7000838B553EC102BC3F37D
:101270000A511C46054681BB10EE101A23F00044AB
:10128000214329D0194600223D4B3E4C10EE100A56
:1012900000F038FAA54202460B4616DB0C46C1F3B5
:1012A0000A513639294440F2FE70814221DC00297E
:1012B00047DC11F1350F34DA4CF250318D4218DC35
:1012C000002B27A1D1E9000144DB25A3D3E90023AA
:1012D00000F018FA41EC100B38BD40F2FF7081426B
:1012E000E0D110EE100A194600F056F841EC100B50
:1012F00038BD002B1CA1D1E9000107DB1AA3D3E9FB
:10130000002300F0FFF941EC100B38BD18A1D1E922
:10131000000115A3D3E9002300F0F4F941EC100B10
:10132000F3E724F0FF4424F4E004363144EA0153A7
:10133000104619460022144B00F0E4F941EC100B62
:1013400038BD24F0FF4424F4E00444EA015343ECA4
:10135000102B38BD08A1D1E90001B6E7AFF300803A
:1013600059F3F8C21F6EA5019C7500883CE4377ED6
:101370009C7500883CE437FE59F3F8C21F6EA581C6
:1013800000005043B03CFFFF0000903C81F0004162
:1013900002E000BF83F0004330B54FEA41044FEA5A
:1013A000430594EA050F08BF90EA020F1FBF54EAF5
:1013B000000C55EA020C7FEA645C7FEA655C00F091
:1013C000E2804FEA5454D4EB5555B8BF6D420CDD62
:1013D0002C4480EA020281EA030382EA000083EAE5
:1013E000010180EA020281EA0303362D88BF30BD85
:1013F00011F0004F4FEA01314FF4801C4CEA1131DB
:1014000002D0404261EB410113F0004F4FEA033339
:101410004CEA133302D0524263EB430394EA050FC4
:1014200000F0A780A4F10104D5F1200E0DDB02FA33
:101430000EFC22FA05F2801841F1000103FA0EF2C7
:10144000801843FA05F359410EE0A5F120050EF18D
:10145000200E012A03FA0EFC28BF4CF0020C43FABE
:1014600005F3C01851EBE37101F0004507D54FF0CB
:10147000000EDCF1000C7EEB00006EEB0101B1F51B
:10148000801F1BD3B1F5001F0CD349085FEA300061
:101490004FEA3C0C04F101044FEA445212F5800F6C
:1014A00080F09A80BCF1004F08BF5FEA500C50F109
:1014B000000041EB045141EA050130BD5FEA4C0CEC
:1014C000404141EB0101013C28BFB1F5801FE9D249
:1014D00091F0000F04BF01460020B1FA81F308BF6C
:1014E0002033A3F10B03B3F120020CDA0C3208DD38
:1014F00002F1140CC2F10C0201FA0CF021FA02F113
:101500000CE002F11402D8BFC2F1200C01FA02F182
:1015100020FA0CFCDCBF41EA0C019040E41AA2BFA7
:1015200001EB0451294330BD6FEA04041F3C1CDA6F
:101530000C340EDC04F11404C4F1200220FA04F08F
:1015400001FA02F340EA030021FA04F345EA030139
:1015500030BDC4F10C04C4F1200220FA02F001FAFB
:1015600004F340EA0300294630BD21FA04F029467D
:1015700030BD94F0000F83F4801306BF81F4801116
:101580000134013D4EE77FEA645C18BF7FEA655C89
:1015900029D094EA050F08BF90EA020F05D054EA5B
:1015A000000C04BF1946104630BD91EA030F1EBF60
:1015B0000021002030BD5FEA545C05D14000494164
:1015C00028BF41F0004130BD14F580043CBF01F557
:1015D000801130BD01F0004545F0FE4141F470013D
:1015E0004FF0000030BD7FEA645C1ABF1946104618
:1015F0007FEA655C1CBF0B46024650EA013406BF19
:1016000052EA033591EA030F41F4002130BD00BFD7
:1016100090F0000F04BF0021704730B54FF4806494
:1016200004F132044FF000054FF0000150E700BF15
:1016300090F0000F04BF0021704730B54FF4806474
:1016400004F1320410F0004548BF40424FF0000161
:101650003EE700BF42004FEAE2014FEA31014FEAA4
:1016600002701FBF12F07F4393F07F4F81F06051F3
:10167000704732F07F4208BF704793F07F4F04BF3E
:1016800041F40021704730B54FF4607401F000451B
:1016900021F000411CE700BF50EA010208BF70477B
:1016A00030B54FF000050AE050EA010208BF70476C
:1016B00030B511F0004502D5404261EB41014FF4D5
:1016C000806404F132045FEA915C3FF4D8AE4FF0DD
:1016D00003025FEADC0C18BF03325FEADC0C18BFC0
:1016E000033202EBDC02C2F1200300FA03FC20FA11
:1016F00002F001FA03FE40EA0E0021FA02F114445E
:10170000BDE600BF70B54FF0FF0C4CF4E06C1CEA76
:1017100011541DBF1CEA135594EA0C0F95EA0C0FE7
:1017200000F0DEF82C4481EA030621EA4C5123EA5A
:101730004C5350EA013518BF52EA033541F4801189
:1017400043F4801338D0A0FB02CE4FF00005E1FB3C
:1017500002E506F00042E0FB03E54FF00006E1FB86
:1017600003569CF0000F18BF4EF0010EA4F1FF04C9
:10177000B6F5007F64F5407404D25FEA4E0E6D4109
:1017800046EB060642EAC62141EA55514FEAC5201A
:1017900040EA5E504FEACE2EB4F1FD0C88BFBCF596
:1017A000E06F1ED8BEF1004F08BF5FEA500E50F147
:1017B000000041EB045170BD06F0004646EA01010D
:1017C00040EA020081EA0301B4EB5C04C2BFD4EB3F
:1017D0000C0541EA045170BD41F480114FF0000E38
:1017E000013C00F3AB8014F1360FDEBF002001F0A6
:1017F000004170BDC4F10004203C35DA0C341BDC20
:1018000004F11404C4F1200500FA05F320FA04F0F1
:1018100001FA05F240EA020001F0004221F0004125
:1018200010EBD37021FA04F642EB06015EEA430E98
:1018300008BF20EAD37070BDC4F10C04C4F12005C8
:1018400000FA04F320FA05F001FA04F240EA02007B
:1018500001F0004110EBD37041F100015EEA430E4C
:1018600008BF20EAD37070BDC4F1200500FA05F26C
:101870004EEA020E20FA04F301FA05F243EA0203EB
:1018800021FA04F001F0004121FA04F220EA0200FA
:1018900000EBD3705EEA430E08BF20EAD37070BD40
:1018A00094F0000F0FD101F00046400041EB010120
:1018B00011F4801F08BF013CF7D041EA060195F002
:1018C000000F18BF704703F00046520043EB0303BC
:1018D00013F4801F08BF013DF7D043EA06037047A9
:1018E00094EA0C0F0CEA135518BF95EA0C0F0CD0B4
:1018F00050EA410618BF52EA4306D1D181EA0301FA
:1019000001F000414FF0000070BD50EA410606BFF3
:101910001046194652EA430619D094EA0C0F02D138
:1019200050EA013613D195EA0C0F05D152EA03367D
:101930001CBF104619460AD181EA030101F000419B
:1019400041F0FE4141F470014FF0000070BD41F0E4
:10195000FE4141F4780170BD70B54FF0FF0C4CF4BE
:10196000E06C1CEA11541DBF1CEA135594EA0C0FDD
:1019700095EA0C0F00F0A7F8A4EB050481EA030E2A
:1019800052EA03354FEA013100F088804FEA033311
:101990004FF0805545EA131343EA12634FEA0222DF
:1019A00045EA111545EA10654FEA00260EF00041A0
:1019B0009D4208BF964244F1FD0404F5407402D2F2
:1019C0005B084FEA3202B61A65EB03055B084FEA83
:1019D00032024FF480104FF4002CB6EB020E75EB80
:1019E000030E22BFB61A754640EA0C005B084FEAA8
:1019F0003202B6EB020E75EB030E22BFB61A754625
:101A000040EA5C005B084FEA3202B6EB020E75EB6F
:101A1000030E22BFB61A754640EA9C005B084FEAE7
:101A20003202B6EB020E75EB030E22BFB61A7546F4
:101A300040EADC0055EA060E18D04FEA051545EAE3
:101A400016754FEA06164FEAC30343EA52734FEA8C
:101A5000C2025FEA1C1CC0D111F4801F0BD141EA05
:101A600000014FF000004FF0004CB6E711F4801F6A
:101A700004BF01430020B4F1FD0C88BFBCF5E06F4A
:101A80003FF6AFAEB5EB030C04BFB6EB020C5FEA5A
:101A9000500C50F1000041EB045170BD0EF0004EAF
:101AA0004EEA113114EB5C04C2BFD4EB0C0541EAE1
:101AB000045170BD41F480114FF0000E013C90E6DE
:101AC00045EA060E8DE60CEA135594EA0C0F08BFA2
:101AD00095EA0C0F3FF43BAF94EA0C0F0AD150EAA1
:101AE00001347FF434AF95EA0C0F7FF425AF104634
:101AF00019462CE795EA0C0F06D152EA03353FF45C
:101B0000FDAE1046194622E750EA410618BF52EAD8
:101B100043067FF4C5AE50EA41047FF40DAF52EAAC
:101B200043057FF4EBAE12E74FF0FF3C06E000BF49
:101B30004FF0010C02E000BF4FF0010C4DF804CD56
:101B40004FEA410C7FEA6C5C4FEA430C18BF7FEA16
:101B50006C5C1BD001B050EA410C0CBF52EA430C44
:101B600091EA030F02BF90EA020F0020704710F1C4
:101B7000000F91EA030F58BF994208BF90422CBF53
:101B8000D8176FEAE37040F0010070474FEA410C4C
:101B90007FEA6C5C02D150EA013C07D14FEA430C6A
:101BA0007FEA6C5CD6D152EA033CD3D05DF8040BDB
:101BB000704700BF8446104662468C46194663460D
:101BC00000E000BF01B5FFF7B7FF002848BF10F1E4
:101BD000000F01BD4DF808EDFFF7F4FF0CBF012029
:101BE00000205DF808FB00BF4DF808EDFFF7EAFFA5
:101BF00034BF012000205DF808FB00BF4DF808ED60
:101C0000FFF7E0FF94BF012000205DF808FB00BF54
:101C10004DF808EDFFF7CEFF94BF012000205DF8DE
:101C200008FB00BF4DF808EDFFF7C4FF34BF0120EB
:101C300000205DF808FB00BF4FEA410C7FEA6C5CB6
:101C400002D150EA013C0AD14FEA430C7FEA6C5CB6
:101C500002D152EA033C02D14FF0000070474FF02E
:101C6000010070474FEA4102B2F1E04324BFB3F5EF
:101C7000001CDCF1FE5C0DD901F0004C4FEAC00203
:101C80004CEA5070B2F1004F40EB830008BF20F0E7
:101C90000100704711F0804F21D113F13872BCBFA1
:101CA00001F00040704741F480114FEA5252C2F1F6
:101CB0001802C2F1200C10FA0CF320FA02F018BF3F
:101CC00040F001004FEAC1234FEAD32303FA0CFC92
:101CD00040EA0C0023FA02F34FEA4303CCE77FEA21
:101CE000625307D150EA01331EBF4FF0FE4040F46B
:101CF0004000704701F0004040F0FE4040F400001A
:101D0000704700BF53B94AB9002908BF00281CBF5B
:101D10004FF0FF314FF0FF3000F00CB8ADF1080C80
:101D20006DE904CE0CF0F4FBDDF804E0DDE90223FC
:101D300004B07047704700BF08B5062000F08CFA69
:101D400001200CF0D7FB00BF014B1868704700BFA3
:101D5000040C0020032A70B412D940EA0105AD0733
:101D600004460B4620D11946204653F8045B54F82C
:101D7000046BAE4218D1043A032A20461946F2D821
:101D8000541E72B103780A789A4208BF241806D00C
:101D90000CE010F8013F11F8012F934206D1A04248
:101DA000F7D1002070BC7047541EEBE7981A70BC46
:101DB000704700BF844641EA000313F003036DD16E
:101DC000403A41D351F8043B40F8043B51F8043BFE
:101DD00040F8043B51F8043B40F8043B51F8043B05
:101DE00040F8043B51F8043B40F8043B51F8043BF5
:101DF00040F8043B51F8043B40F8043B51F8043BE5
:101E000040F8043B51F8043B40F8043B51F8043BD4
:101E100040F8043B51F8043B40F8043B51F8043BC4
:101E200040F8043B51F8043B40F8043B51F8043BB4
:101E300040F8043B51F8043B40F8043B51F8043BA4
:101E400040F8043B403ABDD2303211D351F8043B44
:101E500040F8043B51F8043B40F8043B51F8043B84
:101E600040F8043B51F8043B40F8043B103AEDD2F3
:101E70000C3205D351F8043B40F8043B043AF9D244
:101E8000043208D0D2071CBF11F8013B00F8013B17
:101E900001D30B8803806046704700BF082A13D324
:101EA0008B078DD010F003038AD0C3F10403D21A3C
:101EB000DB071CBF11F8013B00F8013B80D331F870
:101EC000023B20F8023B7BE7043AD9D3013A11F8F0
:101ED000013B00F8013BF9D20B7803704B7843705B
:101EE0008B788370604670478842F0B40DD98B18A8
:101EF00083420AD9841832B1224613F8014D02F800
:101F0000014D9942F9D1F0BC70470F2A0ED8034613
:101F1000541E002AF7D001340C44013B11F8012B68
:101F200003F8012FA142F9D1F0BC704740EA010348
:101F30009B073BD1A2F110073F0901F1200606EBF8
:101F4000071601F1100300F1100453F8105C44F877
:101F5000105C53F80C5C44F80C5C53F8085C44F8D3
:101F6000085C53F8045C44F8045C1033B34204F199
:101F70001004EAD17B1C1B0112F00C0F194402F073
:101F80000F05034415D0043DAD0803EB850C1C1F61
:101F90000E4656F8047B44F8047F6445F9D10135B8
:101FA000AD002B44294402F00302B1E7541E03465E
:101FB000B1E72A46ACE700BFF0B4860746D0541E0E
:101FC000002A3CD0CAB2034602E014F1FF3436D3F3
:101FD00003F8012B9D07F8D1032C29D9CDB245EA8E
:101FE00005250F2C45EA054533D9A4F1100636091D
:101FF00003F1200707EB061703F1100242E904552D
:1020000042E902551032BA42F8D1721C14F00C0F9A
:1020100003EB021204F00F0613D0331F23F0030367
:102020000433134442F8045B9342FBD106F00304EB
:102030002CB1C9B21C4403F8011B9C42FBD1F0BC7B
:10204000704734461346002CF3D1F8E71446034694
:10205000C2E71A462646E0E738B5124B1C68A26B69
:1020600005461AB10023C2E9045338BD182000F018
:1020700071F90246A06378B1012000210A4B136078
:10208000C2E904010B230948094993810023C2E9ED
:102090000101C2E9045338BD064B0748422100F054
:1020A00013F900BF040C00200E33CDAB34126DE6E3
:1020B000ECDE050010FF000828FF000838B51A4BB9
:1020C0001C68A26B92B1146918495369184801FB46
:1020D00004F100FB0313A4FB0045611C1D4445F102
:1020E000000323F00040C2E9041338BD182000F0BB
:1020F00031F90246A06388B101200021C2E9040140
:102100000A480C4C0C4B0D490D4D146053600B24C8
:10211000034695609481C2E9041338BD094B0A480F
:102120004E2100F0D1F800BF040C00202DF45158CE
:102130002D7F954C0E33CDAB34126DE62E7F954C32
:10214000ECDE050010FF000828FF000810B5802114
:10215000044600F065F9606440B1031F00227C3042
:1021600043F8042F8342FBD1002010BD4FF0FF3015
:1021700010BD00BF436C0BB100207047E6E700BF05
:102180001F2970B5054608D8436C16460C464BB15E
:1021900053F8240043F8246070BD162202604FF00B
:1021A000FF3070BDFFF7D2FF08B96B6CF0E74FF05E
:1021B000FF3070BD1F2938B521D8426C05460C464A
:1021C0006AB152F8213053B1012B16D0591C10D0EE
:1021D0000025204642F824509847284638BD284616
:1021E00000F070F8224601462846BDE8384000F06D
:1021F00055B816230360012038BD002038BD1623D2
:1022000003604FF0FF3038BD1F2921D838B5436C2B
:1022100005460C4683B153F8242003EB84034AB1EE
:10222000511C10D0012A0CD0002520461D6090477B
:10223000284638BD012038BDFFF788FF28B96B6CF0
:10224000E9E7032038BD022038BD4FF0FF3038BD2C
:102250004FF0FF30704700BF024B01461868FFF790
:10226000A9BF00BF040C0020024B0A4601461868B3
:10227000FFF786BF040C0020034B1868436C0BB1BA
:102280000020704762E700BF040C0020024B0146AB
:102290001868FFF7B9BF00BF040C002038B50B4623
:1022A000074C054611461846002323600CF02AF916
:1022B000431C00D038BD2368002BFBD02B6038BDF9
:1022C000A82A00200CF021B900B50A4C2668054662
:1022D00085B01C46F06852B1074B0091CDE9013240
:1022E00006492B46224600F021F8FFF725FD044B56
:1022F0001A46F2E7040C00205CFF00086CFF00089F
:1023000068FF000808B513460022FFF7DDFF00BF95
:102310000CB400B583B004AB53F8042B019300F068
:1023200027F903B05DF804EB02B070470EB410B5A6
:1023300083B005AB064C53F8042B0193014620688B
:1023400000F016F903B0BDE8104003B0704700BFBD
:10235000040C0020024B0146186800F061B800BF71
:10236000040C0020024B0146186800F003B800BFBF
:10237000040C002000293CD038B551F8043C0C1F57
:10238000002BB8BFE418054601F03AFA234B1A684F
:102390002AB1A2420DD921686018824223D062601E
:1023A00028461C60BDE8384001F030BAA34203D88B
:1023B0001A465368002BF9D111685018A04219D061
:1023C00024D821686018834206D063605460284690
:1023D000BDE8384001F01ABAD3E900030144636054
:1023E00021605460F3E7D2E9000201446260216099
:1023F000D6E7704720680144501883421160E6D147
:10240000D3E90003014453601160E0E70C232B6023
:102410002846BDE8384001F0F9B900BFC8110020D6
:10242000F8B5CD1C25F0030508350C2D38BF0C255B
:10243000002D064633DBA94231D82A4F01F0E0F9DE
:102440003A6852B113685B1B04D43FE023685B1BFE
:1024500029D522465468002CF8D1796800293BD050
:10246000294630460CF02AF8431C28D0C41C24F01E
:102470000304A04205D0211A30460CF01FF80130A9
:102480001DD02560304601F0C1F904F10B0020F0A9
:102490000700231DC21A01D01B1AA350F8BD0C223D
:1024A00032600020F8BD0B2B05D8A242636811D022
:1024B0005360E7E7144623601C442560E2E70C23E1
:1024C0003046336001F0A2F90020F8BD0B2BF1D8A3
:1024D000536814463B60D5E730460BF0EFFF786059
:1024E000BEE700BFC81100209368013B002B93603A
:1024F00011DA10B49469A34209DB0A2907D01368E2
:10250000581C1060197008465DF8044B70475DF860
:10251000044B00F09FBB1368581C106019700846EC
:10252000704700BF9BB1F8B513440F4606465D1EC9
:10253000541E01E0AC4208D03A4614F8011F304660
:10254000FFF7D2FF431CF5D1F8BD0020F8BD0020F5
:10255000704700BF936810B5144613B9536018460E
:1025600010BD00F09BFE0023C4E9013310BD00BF85
:102570002DE9F04F9FB08B4690461C46039018B152
:102580008369002B00F0C580B34B9B4500F0C780EA
:10259000B24B9B4500F0C780B14B9B4504BF039BEA
:1025A000D3F80CB0DBF86430BBF80C20DB0702D4A6
:1025B000970540F14381160740F12781DBF8103081
:1025C000002B00F0228130238DF8323098F8003053
:1025D0000594002120220B91A24E8DF83120012775
:1025E000002B00F08580252B00F00D81454603E08F
:1025F000252B00F09C8025466B786C1C002BF7D1B6
:10260000B4EB080A74D04246534659460398FFF784
:1026100089FF01306CD00B9B6A7853440B93002ADE
:1026200066D000234FF0FF3201340693CDE9083322
:102630008DF85B301C93079205E0069A07FA03F3C6
:1026400013432C4606932546052215F8011B3046F8
:1026500001F086F8AA46831B0028EED1069BD80617
:1026600044BF20228DF85B201907217844BF2B221C
:102670008DF85B202A295FD1059A11680432002960
:102680000592C0F2958009916178A51C2E296CD025
:10269000754C0322204601F063F800287ED0001B11
:1026A000069B402404FA00F00343069305F1010859
:1026B00029786E488DF83010062201F051F8002874
:1026C0007CD06B4B002B6CD005AB00935A46694B0A
:1026D000039806A9AFF300808146B9F1FF3F07D008
:1026E0000B9B4B440B9398F80030002B7FF47BAF8F
:1026F000DBF8643013F0010FBBF80C3002D19A05FF
:1027000040F1A3805B0600F193800B981FB0BDE8F9
:10271000F08F00F0ABFC504B9B457FF439AF039B2F
:10272000D3F804B03EE7039BD3F808B03AE7B4EB24
:10273000080A3FF476AF66E7A1F13002092A88BFA4
:10274000A246A3D8099B01E02C460135297803EB6A
:10275000830302EB4303A1F13002092AAA46F3D90D
:102760002E2904F10205099392D19AF801102A2921
:102770002ED1059B9AF802101A6807920433002A9A
:1027800005930AF103050AF1020337DB364C0322F5
:1027900020469A4600F0E4FF002880D1A84655461E
:1027A00086E7059B073323F007030833059397E774
:1027B000494243F002030991069365E705AB009394
:1027C0005A462C4B039806A900F0F8F8814684E796
:1027D000A1F130020023092A079301D92BE05546C5
:1027E000697803EB830302EB4303A1F13002092A6A
:1027F00005F1010AF3D90235079349E74FF0FF329B
:102800009A46079244E744460BE75946039800F07E
:1028100081FA00283FF4D7AEDBF86430DD0707D437
:10282000BBF80C309C0503D4DBF8580000F01CFF0B
:102830004FF0FF306AE7AA46013529E7DBF8580078
:1028400000F00AFFBBF80C20B5E6DBF8580000F0FA
:102850000BFFBBF80C3055E73CE800081CE800080B
:10286000FCE700089CFF0008A4FF0008A8FF000880
:10287000000000002525000810B4044C13460A4649
:10288000014620685DF8044BFFF772BE040C00207F
:102890002DE9F0470C4691460A698968DDF82080E9
:1028A0008A42B8BF0A46C9F8002094F84310064689
:1028B0001F4611B10132C9F80020236899065CD582
:1028C000D9F800200232C9F80020236813F0060F5F
:1028D00019461DD1E1688A1A002AD8BF194617DDAA
:1028E00004F1190A002505E0E368D9F800209B1AD5
:1028F000AB420CDD0123524639463046C047013019
:1029000005F10105F0D14FF0FF30BDE8F0872168F7
:1029100094F84330003318BF01238A060AD5E11822
:102920005A1C302081F84300224494F8451082F864
:102930004310023304F1430239463046C0470130A8
:10294000E1D02368A268216903F00603042B1DD09F
:102950008A4226DD4FF00009521A91441A340025AC
:1029600001E04D451DDA0123224639463046C04775
:10297000013005F10105F4D1C5E713F0060F13D0BE
:1029800094F84330003318BF0123D3E7D9F800008F
:10299000E3688A42A3EB000323EAE379DCDC002B43
:1029A000DCDC0020BDE8F087E168D9F800208A1A55
:1029B000002AD8BF194693DCAAE700BF2DE9F043EF
:1029C0000C46097E85B06E29064617460C98984637
:1029D00004F1430E6DD039D9732900F0F68044D943
:1029E000752900F00481782940F01181782322684C
:1029F000DFF858C284F845300168150651F8043BE9
:102A0000016040F1A180D10744BF42F02002226062
:102A1000002B00F093801022002184F8431060689E
:102A2000A0600028C0F2C880216821F00401216064
:102A3000002B40F0A380002840F0C0807546082A93
:102A400000F0AC80AEEB0503236141E0632900F0A8
:102A5000E5801AD8002938D0582940F0D88084F869
:102A600045102268DFF8E8C1C6E76F2900F0BF8093
:102A7000702940F0CC802268DFF8D0C142F02002FB
:102A80007823226084F84530B6E7642902D06929AA
:102A900040F0BD8022680368110603F1040557D594
:102AA000196805600B46002959DBDFF8A4C10A222A
:102AB000B5E70368226861691D1D056015061B687E
:102AC00002D4500600F1BD801960002375462361D1
:102AD000CDF800803B4603AA21463046FFF7D8FEDA
:102AE000013020D02A46236939463046C04701309C
:102AF00019D022680398E368920719D51A1A002A98
:102B000016DD04F11909002504E0E36803981A1A98
:102B1000AA420DDD01234A4639463046C0470130FE
:102B200005F10105F1D14FF0FF3005B0BDE8F083AC
:102B30009842B8BF184605B0BDE8F083226822F07D
:102B400020022260102267E7500648BF9BB25AE776
:102B50005106A5D5B3F9003005601946A3E76168B1
:102B6000A1602D200029C3F1000384F8430002DB9B
:102B700022F004022260DFF8D8C00A22754600E085
:102B80000B46B3FBF2F102FB113093421CF800003C
:102B900005F8010DF4D2082A7FF454AF2368DB074F
:102BA0007FF550AF626823699A423FF74BAF3023FD
:102BB00005F8013C013D45E7002BDFD19CF80030D2
:102BC00084F8423004F1420539E703686268191D50
:102BD00001601D680021284600F0C2FD002832D0A7
:102BE000401B60602061002384F8433070E7226856
:102BF000036812F0800F03F104051AD01B6805600A
:102C00006F290CBF08220A22DFF844C004E7012321
:102C100084F84210236104F14205E4E703681A686E
:102C2000191D0123016004F1420584F8422023614B
:102C3000D9E712F0400F0DBF1B6805601B880560C7
:102C4000DEE7198041E76068CCE700BFC4FF0008F9
:102C5000B0FF0008F8B50D461446064608B1836972
:102C600043B3254B9C422AD0244B9C4229D0244B71
:102C70009C4208BFF468A389A269A2601A0722D502
:102C8000236903B322686169D31AEDB299422F46D2
:102C900029DD0133A168501C0139A1602060157045
:102CA00062699A4216D0A389DB0701D50A2D11D09B
:102CB0003846F8BD00F0DAF90F4B9C42D4D1746865
:102CC000D9E7B468D7E72146304600F023F838B991
:102CD0002369D7E72146304600F032F90028E7D0D3
:102CE0004FF0FF37E4E72146304600F029F900288D
:102CF000F6D122680123CDE73CE800081CE8000873
:102D0000FCE70008024B0A4601461868FFF7A2BF1D
:102D1000040C00203B4B70B51D6806460C460DB1F7
:102D2000AB69DBB1384B9C421ED0384B9C424AD039
:102D3000374B9C4208BFEC68B4F90C2093B21907DA
:102D400018D5206908B313F001022CD06369002262
:102D50005B42A361A26060B3002070BD284600F012
:102D600085F9294B9C42E0D16C68B4F90C2093B2F0
:102D70001907E6D4DD063CD5580726D4206942F071
:102D80000803A3819BB20028DDD103F42072B2F5C1
:102D9000007FD8D03046214600F096FCA3892069F8
:102DA00013F00102D2D1990758BF6269A2600028CE
:102DB000D2D1B4F90C301A06CFD543F04003A38129
:102DC0004FF0FF3070BDAC68B6E7616B51B104F1F4
:102DD0004403994204D03046FFF7CCFAB4F90C20F2
:102DE0000023636300232069636022F024022060D3
:102DF000C5E742F04002092333604FF0FF30A28163
:102E000070BD00BF040C00203CE800081CE800086E
:102E1000FCE700088B891A072DE9F0410C46804633
:102E200041D44A68002A59DDE66A002E53D00022B8
:102E3000D8F80050216AC8F8002013F4805251D10C
:102E400001234046B047431C5FD0A389E66A216A4C
:102E50005F0705D56268636B801A0BB1236CC01ADB
:102E6000024600234046B047461C45D1D8F8003002
:102E7000B4F90C20002B55D01D2B01D0162B5AD1A4
:102E800023690022C4E90032616BC8F8005011B315
:102E900004F14403994202D04046FFF76BFA002048
:102EA0006063BDE8F0810E69AEB10D680E609907F0
:102EB0000CBF63690023AD1BA3600AE02B463246BA
:102EC000A76A216A4046B8470028A5EB00050644DA
:102ED0000ADD002DF2DC0020BDE8F0810A6C002A3A
:102EE000A2DCF8E7606DB3E7A38943F04003A38158
:102EF0004FF0FF30BDE8F0812269A38922600022F3
:102F00006260DA04C0D56065BEE7D8F80030002BF7
:102F10009BD01D2B0CD0162B0AD0A38943F0400365
:102F2000A381D9E72169C4E90013D304ACD5EAE74A
:102F3000C8F80050CFE742F04002A281CCE700BFC2
:102F400038B50B691BB30C46054608B183691BB342
:102F5000184B9C421ED0184B9C4220D0174B9C42D1
:102F600008BFEC68B4F90C308BB1626ED00701D4A5
:102F7000990516D528462146FFF74CFF636EDA0700
:102F8000054602D4A3899B050FD5284638BD0025E8
:102F9000284638BD6C68E5E700F068F8D8E7AC680B
:102FA000E0E7A06D00F058FBE4E7A06D00F05CFBEB
:102FB000EBE700BF3CE800081CE80008FCE700085D
:102FC00020B1054B01461868FFF7BABF034B04490F
:102FD000186800F00DBB00BF040C0020F8E70008E3
:102FE000412F0008014900F003BB00BF412F00083A
:102FF00008B5436EDA0702D483899B0501D500200A
:1030000008BD806D00F028FB002008BD08B5436EA8
:10301000DA0702D483899B0501D5002008BD806DA5
:1030200000F022FB002008BD70B54A1E682505FB94
:1030300002F50E4605F17401FFF7F2F9044640B1BE
:1030400000210C30666005F168022160A060FEF787
:10305000B3FF204670BD00BF024B0349186800F063
:10306000C7BA00BFF8E70008412F00082DE9F84F64
:1030700005463A4800F0F0FAAB69002B68D1384AAF
:103080002B6512683749A962AA42C5E9123304BF09
:103090000123AB61284600F073F86860284600F011
:1030A0006FF8A860284600F06BF86E68E8600024AE
:1030B0000423F3607466C6E90044B460C6E90444BE
:1030C000B461214606F15C000822FEF775FFDFF8C7
:1030D000A0B0AF68DFF89CA0DFF89C90DFF89C8080
:1030E000214BC6F83080C6E9086BC6E90AA921461B
:1030F000FB607C66C7E90044BC60C7E90444BC616E
:1031000007F15C000822FEF757FFEE68174BC7F87F
:103110003080C7E9087BC7E90AA92146F3607466D5
:10312000C6E90044B460C6E90444B46106F15C0039
:103130000822FEF741FF0123C6E9086BC6E90AA988
:10314000C6F830800548AB61BDE8F84F00F08CBA96
:103150000248BDE8F84F00F087BA00BFB82A002047
:10316000F8E70008E52F000809000100120002003E
:10317000653800088D380008CD380008ED380008A3
:1031800070B50646244800F067FA244B1D68AB6909
:103190007BB34835D5E90134013B05D525E0013B3A
:1031A0005A1C04F1680420D0B4F90C20002AF6D18E
:1031B00000251B4BE36004F15800656600F044FAFB
:1031C000154800F051FA2560C4E90155C4E90455D9
:1031D000A5612946082204F15C00FEF7EDFEC4E972
:1031E0000D55C4E91255204670BD2C682CB12546FA
:1031F000D0E72846FFF73AFFCBE704213046FFF738
:1032000013FF044628600028F1D1034800F02CFA8F
:103210000C233360E7E700BFCC2A0020F8E7000862
:103220000100FFFF014800F017BA00BFCC2A0020C0
:10323000014800F019BA00BFCC2A0020014800F074
:103240000BBA00BFB82A0020014800F00DBA00BF39
:10325000B82A002008B5054800F0FEF9044B0549DE
:103260001868BDE8084000F09DB900BFCC2A0020D6
:10327000040C0020F12F000808B5054B054918681B
:1032800000F090F90448BDE8084000F0EDB900BF37
:10329000040C00200D300008CC2A00209368002B7D
:1032A00000F002812DE9F04FB1F90C309BB20C46D1
:1032B000190783B08246904635D522699AB313F038
:1032C0000202D8F800603DD00027D4F828B0D4F826
:1032D00020C0DFF8CC923D464D452B463A4628BFEC
:1032E0004B4661465046D5B1D847002840F3D280BE
:1032F000D8F808301B1A07442D1AC8F80830002BDC
:1033000000F0B780D4F820C0D4F828B04D452B4643
:103310003A4628BF4B4661465046002DE4D1D6E9D7
:1033200000750836D8E721465046FFF7F3FC002821
:1033300040F03081B4F90C30D8F800609BB213F043
:103340000202C1D113F0010940F0B080A7682068E3
:103350004D46002D54D09A0540F1BC80AF42BB468B
:1033600000F2E78013F4906F2FD0D4E9041707EB35
:103370004707A0EB010B07EBD777681C7F10584479
:10338000B8423A4684BF07463A465B0540F1E980B9
:1033900011465046FFF744F8002800F0F5805A46E1
:1033A00021690190FEF706FDA289019B22F490623B
:1033B00042F08002A281A7EB0B0203EB0B006761D6
:1033C00023612060A2602F46AB465A464946FEF76D
:1033D0008BFDA2682368D21B5B442F46A26023604A
:1033E0000025D8F80830DB1BB944C8F80830002B9A
:1033F0003FD0B4F90C30A76820689BB2002DAAD149
:10340000D6E900950836A4E70BF1080353E90267F3
:103410009B460833002FF9D03A460A21304600F087
:103420009FF9002853D00130A0EB06094B46D4E9A0
:1034300004122068BB4228BF3B46884203D9A568D6
:103440001544AB4219DC9A427DDC1346A56A216A19
:1034500032465046A847051E1CDDB9EB05096BD066
:103460000120D8F808305B1B2E447F1BC8F80830B9
:1034700013BB002003B0BDE8F08F31462A46FEF7AB
:1034800033FD23682B44236021465046FFF758FD47
:103490000028E2D0B4F90C3043F040034FF0FF3085
:1034A000A38103B0BDE8F08F0020704733469146FA
:1034B000104617464E469B46002FA5D00028B5D192
:1034C0003A460A21304600F04BF90028ABD17B1C6C
:1034D0009946ACE72369834215D36169A94212D8A2
:1034E0002E4BA76A9D4294BF2B466FF000434A467D
:1034F00093FBF1F3504601FB03F3216AB847071E23
:10350000C8DDED1B6DE7AF4228BF2F463A4649465E
:10351000FEF7EAFCA3682268DB1B3A44A360226042
:10352000002BEED121465046FFF70AFD0028E8D0D7
:10353000B0E72F46AB4648E721465046FFF700FD6F
:1035400000288ED0A6E71A4631460193FEF7CCFC40
:10355000019BA1682268C91A1A44A16022601D4615
:103560007BE7504600F058F9034600287FF423AF6C
:1035700021695046FEF7FEFEB4F90C300C2223F010
:103580008003CAF8002087E70C23CAF80030B4F99A
:103590000C3081E74FF0FF306CE700BFFEFFFF7F8C
:1035A00000FCFF7F2DE9F04110F148071BD0884651
:1035B0000026D7E90154013D0FD4A389012B05F161
:1035C000FF3506D9B4F90E300133204601D0C0478B
:1035D00006436B1C04F16804EFD13F68002FE8D16B
:1035E0003046BDE8F0813E463046BDE8F08100BF80
:1035F0002DE9F84310F148071FD0884606464FF0E2
:103600000009D7E90154013D11D4A389012B05F12B
:10361000FF3508D9B4F90E3001332146304602D0C7
:10362000C04749EA00096B1C04F16804EDD13F680A
:10363000002FE6D14846BDE8F883B9464846BDE8C4
:10364000F88300BF704700BF704700BF704700BFDE
:10365000704700BF704700BF704700BF0120704730
:1036600001207047704700BF704700BF70B50C461F
:10367000B1F90E10002996B016461D4613DB6A46B6
:103680000AF029FF00280EDB019A02F47042A2F52D
:103690000052B2FA82F252094FF4806300202A608D
:1036A000336016B070BDA38900221B062A6004D5C2
:1036B00040230020336016B070BD4FF480630020BB
:1036C000336016B070BD00BF8A8992070B4606D5DD
:1036D00001F1470201211A60C3E90421704770B566
:1036E00082B001AB6A460C460646FFF7BFFF009961
:1036F00005463046FEF794FEB4F90C3070B1164919
:10370000B162019A0099206043F08003A381C4E96B
:1037100004018AB92B43A38102B070BD9A05FBD482
:1037200023F0030304F1470243F002030121A381C4
:103730002260C4E90421EFE73046B4F90E100AF024
:10374000D6FE10B9B4F90C30E4E7A38923F00303E3
:1037500043F001031BB2DDE7E52F00080000000085
:1037600001F0FF01102A2BDB10F0070F08D010F832
:10377000013B013A8B422DD010F0070F42B3F6D136
:10378000F0B441EA012141EA014122F007047FF04F
:1037900000070023F0E80256083C85EA010586EAA6
:1037A000010685FA47F5A3FA87F586FA47F6A5FAE2
:1037B00087F68EB9EED1F0BC01F0FF0102F00702EE
:1037C00032B110F8013B013A83EA010313B1F8D199
:1037D0000020704701387047002D06BF354603387A
:1037E000073815F0010F07D1013015F4807F02BFB3
:1037F000013015F4C03F0130F0BC0138704700BF04
:103800000148FFF729BF00BFBC2A00200148FFF78D
:103810002BBF00BFBC2A002009B3F8B51446CAB1BB
:1038200006460D4600F066F8A04202D32F46384601
:10383000F8BD21463046FEF7F3FD07460028F6D0D6
:1038400022462946FEF7B6FA30462946FEF792FD93
:103850003846F8BD2746FEF78DFD3846F8BD1146BF
:10386000FEF7DEBD10B50C46B1F90E100AF01BFED6
:10387000002803DB636D0344636510BDA38923F453
:103880008053A38110BD00BF002070472DE9F04197
:103890001646B1F90C201F46D3050C460546B1F972
:1038A0000E1009D422F48052A2813B4632462846AB
:1038B000BDE8F0410AF0FEBD002202230AF0F8FD47
:1038C000B4F90C20B4F90E10ECE700BF10B50C46AB
:1038D000B1F90E100AF0ECFDA389421C0EBF23F4CF
:1038E000805343F480536065A38110BDB1F90E107D
:1038F0000AF0E2BD51F8043C181F002BBCBF0B5866
:10390000C018704701F0FCBE08B5002006F0D4F8DE
:10391000BDE8084000F02DBA1749C0EB00428A42CA
:103920004FF0FF03B2FBF3F30AD89BB20922B3FBBB
:10393000F2F3124A1360A8B91148022108F05CBFE3
:1039400003F5235336330F4A1B02B3FBF2F303FB99
:1039500003F253431B0AB3F5803F14BF9BB24FF6EB
:10396000FF73E6E706488268022153434FF6FF7271
:10397000B3FBF2F208F030BF83671400D4110020CB
:10398000E8290020F52801000148022108F034BF91
:10399000E82900201749C0EB00428A424FF0FF039C
:1039A000B2FBF3F30AD89BB20922B3FBF2F3124A3B
:1039B0001360A8B91148032108F01EBF03F5235373
:1039C00036330F4A1B02B3FBF2F303FB03F25343FC
:1039D0001B0AB3F5803F14BF9BB24FF6FF73E6E7B7
:1039E00006488268032153434FF6FF72B3FBF2F29D
:1039F00008F0F2BE83671400D0110020E8290020EF
:103A0000F52801000148032108F0F6BEE82900204E
:103A100038B5164D16491748174C08F0CCFE2878D3
:103A200000F00700C0EB0020C0F38700FFF774FF31
:103A30004FF481724FF48071204609F070FD2878B0
:103A400000F00700C0EB0020C0F38700FFF7A2FFE3
:103A500020464FF481724FF4007109F060FDFFF7CA
:103A6000D1FFBDE83840FFF78FBF00BFDC25002045
:103A7000280D0020E82900200004004808B501F0C6
:103A8000B1FA08B901F034FB01F0DBFA034B18601E
:103A9000FFF7BEFFBDE8084001F049BBDC25002070
:103AA00008B5044B1420186001F0CEFABDE80840B8
:103AB00001F0D2BADC25002045F62B43984215D8F8
:103AC00045F61C4398420AD8B0F5B44F09D2B0F578
:103AD000B04F04D2A0F58043B3F5A85F04D2002014
:103AE0007047B0F5B84FFAD002F07EBF45F6DF431D
:103AF0009842F4D0A0F5C043B3F5005FEEE70000B4
:103B0000722810B5044603D8032805D8012011E017
:103B1000A0F17403302BF9D88B78002BF6D07320EA
:103B200000F086F9044A1378E0B20133137000F014
:103B30007FF9002010BD00BFD811002072280CD8DA
:103B400003280DD98B785BB9064A1378013BDBB2A9
:103B500013702BB9732000F0EFB974383028F1D905
:103B6000704700BFD81100207F22FF21242006F0DB
:103B70007FB80120704708B5FFF7C2FF08BD08B540
:103B8000FFF7DCFF08BD000013B502AB03E903003B
:103B90000F4B1B78B3B99DF8023073B16AB100F0D6
:103BA00097FD04460146009800F04EFD009920461E
:103BB00002B0BDE8104001F093BB009800F068FD32
:103BC0000446F3E7009800F083FD0099F0E700BF9A
:103BD000D9110020034610B400885C880A4640EAE8
:103BE000044099885DF8044BFFF7CEBF0120704771
:103BF00010B500210446FFF7EDFF2146FFF7BFFF98
:103C000010BD08B501F05CFD00F0DDF802F05AFBD4
:103C100005F006FFBDE80840FFF774BE08B502F0E6
:103C20001DFFBDE8084001F06DBD704710B500F004
:103C300047FC02F0D1FE07F039FA002204460321C6
:103C4000094802F0CDFAFFF7F0FF204607F033FAFB
:103C5000F92805D902F05AFABDE8104007F038BA41
:103C6000642008F03AFAF0E76C0D002038B5012125
:103C70000546FFF7AFFF29460446FFF77CFF08B96A
:103C8000002038BD2946204602F0ECF90028F7D084
:103C90002946204602F044FF0028F1D0294620465C
:103CA00006F04EFF0028EBD02946204606F06EFABB
:103CB0000028E5D02946204606F0C0FE0028DFD0C7
:103CC0002946204606F0F4F90028D9D0AB787BB11C
:103CD00045F65B539C4232D00ED845F601439C42D8
:103CE00018D045F6DF439C4226D0B4F5B84F0ED02D
:103CF0002846FFF73EFFC4E745F65C539C4221D0BF
:103D000045F65D539C42F3D101F050F9F0E7FFF71F
:103D10008DFFB5E70D4A1078C0F3000383F001036F
:103D200063F3000010F00104107003D0084802F0A3
:103D30005DF9A5E70748FAE701F0DAF9A0E701F035
:103D400041F9D5E701F041F9D2E700BF891200201F
:103D5000A8E90008B9E9000808B505F0D3FD00207E
:103D600000F032F802F0D2F9BDE80840012005F079
:103D7000A3BE704708B506F0ADFF00F025F800209F
:103D800005F09AFEFFF7C0FD08BD030943EA0013E2
:103D9000DBB298009B1003F0330300F0CC00184313
:103DA0004300401003F0AA0300F055001843704789
:103DB000704708B5FFF7FCFF08BD0120704708B544
:103DC000FFF7FBFF08BD704710B50446FFF7F1FF92
:103DD0002046FFF7F4FF10BD30B587B06C4684E88D
:103DE00003009DF80230BDF804500BB101F008F853
:103DF0000023ADF8163094E8030004AC0490ADF84D
:103E0000141094E8030002904DB1BDF808204FF65D
:103E1000FF739A4203D02046FFF7E8FE18B194E8FA
:103E2000030000F023FF07B030BD008800F070BC35
:103E300010B5044600287AD0822813D106F04AFF34
:103E4000810774D4392000F07FFF01F01FF842F29F
:103E5000107008F042F9392000F07EFFBDE81040F4
:103E600001F014B883280ED106F034FFC2075ED4E7
:103E7000532000F069FF01F009F842F2107008F0D9
:103E80002CF95320E8E784280ED106F023FF4307DE
:103E90004DD4472000F058FF00F0F8FF42F21070B8
:103EA00008F01BF94720D7E7031FDBB2A02B12D87D
:103EB00006F002FD00283AD11D4B2146186806F095
:103EC0009BFF20B1204600F047FF00F0DFFF2046B7
:103ED00000F03AFFC2E700F12003DBB2072B07D85E
:103EE00000F007040120A040C0B200F063FFB5E776
:103EF00000F15B03DBB2022B05D82438BDE810408B
:103F000080B206F03BBF00F15803DBB2162B06D897
:103F1000084ABDE8104032F8130006F03FBFEC2815
:103F200005D902F067FFBDE8104003F037B810BDB7
:103F3000880D0020CCE9000808B5002858D0822858
:103F40000FD106F0C7FE810752D5392000F0FCFEE4
:103F500000F09CFF392000F0FFFEBDE8084000F0B3
:103F600095BF83280AD106F0B5FEC20740D553207D
:103F700000F0EAFE00F08AFF5320ECE784280AD123
:103F800006F0A8FE430733D5472000F0DDFE00F021
:103F90007DFF4720DFE7021FD2B2A02ADBD900F164
:103FA0002002D2B2072A07D800F007030120984068
:103FB000C0B200F007FFD0E700F15B02D2B2022AE4
:103FC00004D8BDE80840002006F0D8BE00F1580231
:103FD000D2B2162A04D8BDE80840002006F0DEBEA2
:103FE000EC2805D902F064FFBDE8084002F0D6BF16
:103FF00008BD38B505460C46FFF71AFF24B9284618
:10400000BDE83840FFF798BF6420013C08F065F830
:10401000A4B2F3E739280CBF50210021FFF7E9BF14
:1040200008B528B100F0C6FEBDE8084000F02EBF7C
:1040300008BD08B528B100F0C5FEBDE8084000F095
:1040400025BF08BD2DE9F3478679857881460C4662
:1040500000F0A0FE36098046C8B1A846BDB1C4F341
:10406000072303F0F003402B04D004F12003DBB25C
:10407000072B23D9A54B5B7858071FD4022000F0EB
:1040800055FF00F087FE80F001005FFA80F8C4F36E
:10409000033ABAF10F0F41D8DFE81AF0130013000A
:1040A00063006300BB00D30040004000DD003A0124
:1040B0004A014A01A30140004000AC014FF0000852
:1040C000E5E7C4F30723C4F3032613F0F00F18BF8A
:1040D0003601E4B285B156B104F12003DBB2072BFF
:1040E000304600D92CB900F065FE00F0CFFE204626
:1040F00054E000F075FEF8E72046FFF71DFF6EB1B3
:1041000004F12003DBB2072B304600D914B900F0CC
:1041100059FE01E000F06CFE00F0B8FEAAF1080ABA
:10412000BAF1030F03D806F0D5FDFFF74DFEB8F145
:10413000000F00F0668100F025FE10F0010040F055
:10414000608189F8020000F015FE00F043FA48464D
:1041500000F070F900F00EFE02B0BDE8F04700F08C
:1041600043BAC4F3072303F0F003C4F30327202B5F
:10417000E4B218BF3F012CB1012C35D0002D3BD04B
:10418000AEB3B4E7614B5B78590711D54DB127B198
:10419000384600F00FFE00F079FE0020FFF748FEE1
:1041A000BCE72846FFF7C8FE002FB7D03846AEE779
:1041B00085B136B900F040FE3843C0B2FFF730FF9A
:1041C000ACE7012EF6D100F037FE3843C0B200F064
:1041D0003FFEA3E72EB900F04DFE3846FFF729FF5A
:1041E0009CE7012E9AD0F6E71DB1012E96D83846ED
:1041F000E4E7002E92D1F0E7002EEED0392C0CBF70
:104200004FF4FA50012007F068FF2046FFF794FEB4
:1042100084E714F4406FC4F3812308D0012B7FF4AA
:104220007DAF65B1C4F3090006F0B8FD76E725B1AE
:10423000C4F3090006F0A2FD70E72846FAE7284615
:10424000F2E7E0B225B102F0D5FD02F0A7FE65E786
:1042500002F02EFEF9E714F4407F27D1002D7FF401
:104260005DAFC4F34210E2064FEA800048BF0F255D
:10427000C0B248BF854004F00F03C4F3812448BF97
:10428000ED438340022C45EA030009D0032C0AD0F9
:10429000012C02D000F074F940E700F069F93DE725
:1042A00000F076F93AE700F060F937E7C4F301224D
:1042B000FDB112F0010F3FF431AFC4F342108000A2
:1042C000C3B204F00F0000FA03F214F010001CBF98
:1042D0000F209840C4F3812418BFC043022C40EA49
:1042E00002000CD0032C0DD0012C05D000F09AF95F
:1042F00014E712F0020FDEE700F08CF90EE700F091
:1043000099F90BE700F052F908E700BFE02500201B
:10431000E6B2C4F3032425B1204600F05BF9304631
:104320004CE73046FFF785FE204600F05DF9F5E6E4
:10433000E7B2A7F1F003042B3FD8DFE803F0032432
:10434000101720003DB1002E7FF4E8AEC4F3042026
:1043500000F056F9E2E6012E3FF6E0AEF6E7C4F3D0
:104360000420002DE1D100F035F9D7E625B1C4F3E2
:10437000042000F02AF9D1E600F024F9CEE6224B21
:104380005B785B0704D5C4F30420002DCDD0EAE7A9
:104390004DB1C4F30420019000F01CF901980321F1
:1043A00000F0A0FDBAE6012000F0C0FD012E7FF66E
:1043B000B5AE022000F0BAFDB0E62DB10EB1384620
:1043C000ECE6C4F30420CEE746B1392F0CBF4FF41E
:1043D000FA50012007F081FE384617E7C4F30420A5
:1043E000A3E7C4F30322E1B2484600F075FF00F0F2
:1043F000BFF993E6C4F30322E1B2484600F06EFF32
:104400008CE602B0BDE8F087E025002013B50188F6
:104410000446807800F088F90146019100F012F915
:1044200000F0A2F80199204602B0BDE81040FFF765
:1044300009BE000013B50446014606226846FDF792
:10444000B9FCA388F3B1BDF800204FF6FF739A4280
:1044500018D02046FFF70AFC70B900F09BFC88B129
:10446000A3787BB1084B5B785B070BD4022002B0CA
:10447000BDE8104000F05ABD2046FFF7C7FF2046B8
:10448000FFF7B6FB02B010BDE025002008B5002004
:1044900006F074FC002006F081FC00F0B1FC00F096
:1044A000C5FC00F0F3FC02F0AFFEBDE8084002F0EE
:1044B00075BD08B500F058FCBDE80840FFF7E6BF41
:1044C00008B500F087FCBDE80840FFF7F2BFC0F375
:1044D0000332023AC3B20D2A1CD8DFE802F0070704
:1044E0001B1B141B1B1B0707181B1B18F02B13D0BF
:1044F00004D8E72B8CBF002001207047F42B14BF99
:10450000002001207047E72B06D9F12BF7E7C0F315
:10451000C0207047002070470120704708B5008810
:1045200000F0F6F8BDE80840FFF7D1BF82B002AB5B
:1045300003E9030002B0704782B002AB03E9030055
:1045400002B07047704708B5FFF7FCFF08BD0000D8
:1045500008B5FFF7F8FF034B1860BDE80840FFF708
:1045600095BF00BFDC1100207047FFF7F1BF0000CE
:10457000024B1B681843FFF7EBBF00BFDC110020A4
:10458000024B1B681840FFF7E3BF00BFDC1100209F
:10459000024B1B685840FFF7DBBF00BFDC11002057
:1045A000704708B5FFF7FCFF08BD000008B5FFF72E
:1045B000F8FF034B1860BDE80840FFF767BF00BF76
:1045C000E01100200020FFF7F1BF012303FA00F003
:1045D000FFF7ECBF012303FA00F0024B1B681843FE
:1045E000FFF7E4BFE0110020012303FA00F0034BC2
:1045F0001B6823EA0000FFF7D9BF00BFE0110020CD
:10460000012303FA00F0024B1B685840FFF7CEBFAE
:10461000E0110020024B1B681843FFF7C7BF00BF23
:10462000E0110020024B1B681840FFF7BFBF00BF1E
:10463000E0110020024B1B685840FFF7B7BF00BFD6
:10464000E011002070470000C0F3072303EB430391
:1046500037B500EB430000F0070301229A40C0F396
:10466000C4000A4B00EB8000D2B218440024057845
:1046700021FA04F343F300036B40134001346B4011
:10468000052C00F8013BF2D103B030BDE41100204D
:10469000C0F3072303EB430313B500EB43000B49BF
:1046A00000F00704C0F3C40000EB800000220144C6
:1046B000104611F8013BE34003F00103934001323F
:1046C0001843052AC0B2F4D102B010BDE411002095
:1046D0000D4B73B51E680D4BADF804001B681F240D
:1046E0001E4326FA04F3DB07E5B205D4013CF8D2F9
:1046F0000025284602B070BD0199284600F0D4FE7E
:1047000080B20128F2D0F4E7E0110020DC11002093
:1047100007B5ADF804000198FFF7DAFF019903B07F
:104720005DF804EB00F0C0BE13B5104BADF80410FB
:104730001B782BB1019802B0BDE81040FFF7E8BF2D
:1047400070B10198FFF7C4FF044601460198FFF7D6
:104750007BFF0199204602B0BDE8104000F0A4BEE6
:104760000198FFF795FF0446F3E700BFD911002039
:10477000F8B5034660B1002501261C4614F8010B6C
:1047800074283CD00BD802282AD002D8012812D095
:10479000F8BD031F6F2BFBD8FFF74AFB1AE0752803
:1047A00037D000F17C03DBB26F2BF1D800F07F0033
:1047B000FFF7C2FB0EE09C1C5B7803F12002D2B233
:1047C000072A0BD803F007039840C0B200F01EFB85
:1047D00000F05CFB2F46FFB92346CEE71846DBE727
:1047E00058789C1C00F12003DBB2072BE0D800F0C6
:1047F000070006FA00F0C0B200F010FBE8E75F78AF
:104800009C1C002FE6D06420013F07F066FCFFB23D
:10481000F7E75D789C1CDDE76420013F07F05DFC55
:10482000FFB2D8E7F8B50C4B0C4E1C780C4D337822
:10483000A34200D1F8BD05EBC40335F834005F880E
:104840009A88D98840EA074042EA01410134FFF7DB
:1048500073FE04F00704EAE74B1200204A1200201E
:104860000A120020064B10B418885C889A88D988F0
:1048700040EA044042EA01415DF8044BFFF75CBEA8
:1048800002120020F7B5234CA37913F0F00F08D1E2
:10489000A37833B1204B214F1D78214E3B78AB429A
:1048A00001D103B0F0BD214606226846FDF782FA29
:1048B000A18851B3BDF800204FF6FF739A4224D06F
:1048C00006EBC50360785A7890421ED1207816F81E
:1048D0003520904219D19A78BAB99A88521A11495A
:1048E000098892B2914210D9A2790A48012161F354
:1048F0000712A2719A7961F307129A71FFF79AFD74
:1049000003B0BDE8F040FFF78DBF013505F00705A6
:10491000C4E700BF021200204B1200204A12002000
:104920000A120020840D00202DE9F04FAF4D87B012
:1049300004460146062202A8FDF73CFA0622294653
:1049400004A894F800B094F801A0A778B4F8048003
:10495000FDF730FAAB88002B00F00181BDF8102084
:104960004FF6FF718A4200F0FA80AE78002E00F018
:10497000F6809F4995F806900988A8EB030292B249
:10498000914209F0F00940F2B5800622294604A8B8
:10499000B9F1000F71D1FDF70DFABDF810204FF6F7
:1049A000FF718A42B94614D02188914211D187B94A
:1049B000AB79012262F30713AB71FFF753FF28466F
:1049C000FFF738FDAB79A3710026304607B0BDE88C
:1049D000F08F8DF808B08DF809A08DF810B08DF823
:1049E00011A0B8F1000F23D0BDF810104FF6FF72E0
:1049F00091421DD0F7B97F497F4A0D7812787F49DF
:104A0000AA421CD10298FFF783FEC0F30332012AA9
:104A1000C3B224D90E3202F00F02012A28D810F4B2
:104A2000706F21D0A27912F0F00F1DD14E46CCE765
:104A3000002FC9D0AB7943F00103AB71C4E701EBA0
:104A4000C2004778574506D111F832705F4502D150
:104A500080780028B8D1013202F00702D0E710F4C4
:104A6000706F01D0002BE1D02033DBB2072BDDD9F2
:104A70002046FFF7DFFCB146D8E7FDF79BF9BDF80C
:104A800010304FF6FF72934210D022889A420DD117
:104A900067B9AB79A3712046FFF7CCFC0822214609
:104AA0002846FDF787F9FFF7DDFE8EE72046FFF782
:104AB00035FDD8B1D7B1AB791F2B0CD92A88ADF809
:104AC000102004A800228DF81220ADF814808DF873
:104AD0001630FFF7AFFC082221464448FDF76AF97B
:104AE000FFF7D0FEFFF7BEFE01266EE72046FFF778
:104AF000A1FCF9E7B9F1000F15D102AB8DF808B0B0
:104B00008DF809A08DF80A7093E80300FFF70EFDF9
:104B10002846FFF78FFC082249462846FDF74CFA45
:104B2000FFF7A0FE82E70622294604A8FDF742F916
:104B3000BDF810304FF6FF729342B7D02A88238811
:104B40009A42B3D1002FB1D1AB79A3712046FFF7C0
:104B500071FC082239462846FDF72EFA35E723492D
:104B60000193062204A8FDF725F9019B002B66D0CE
:104B7000BDF810204FF6FF794A4560D0AE78002E80
:104B80005DD11B4AA8EB030812881FFA88F842453A
:104B900044D93E46002FA9D01449062204A8FDF7A7
:104BA00009F9BDF810304B452AD02A8823889A424B
:104BB00026D1AB79DA0713D413F0F00210D0F02A23
:104BC000A37106D0DBB2C3F30312013262F3071301
:104BD000A3712046FFF72EFC04480822214660E717
:104BE000082221460148FDF7E5F8EEE60212002012
:104BF000840D00204A1200204B1200200A120020CF
:104C00002046FFF78BFC00287FF465AFAB79204688
:104C100043F00103AB71FFF70DFCD6E68DF808B049
:104C20008DF809A08DF80A7002AB93E80300FFF736
:104C30007DFC082231460C48FDF7BEF933E7002F12
:104C40003FF454AF2046FFF769FC064600283FF4C6
:104C50004DAF082221460448FDF7ACF80248FFF7A3
:104C6000E4F8FFF70FFE1EE702120020F0B587B050
:104C70006C4684E803002046FFF756FE2E4FBDF831
:104C800004202E4D064678B194E803000490ADF858
:104C900014103AB1BDF810204FF6FF739A4201D0BC
:104CA000FFF74AFC264C41E094E8030004AB83E89C
:104CB00003000290002AF5D0BDF8084038782A7821
:104CC0004FF6FF718C42EDD0441C04F0070494426F
:104CD0000AD019461A4B082203EBC000FDF76AF808
:104CE0003C70FFF79FFDDDE7FFF7EAFB0822314646
:104CF00014483E702E70FDF75FF9D3E704EBC00057
:104D0000FFF712FEB0B12B7834F8330004EBC30385
:104D10005E889A88D98840EA064042EA0141FFF756
:104D20000BFC2B78013303F007032B7028783B78BA
:104D30008342E3D107B0F0BD4A1200204B1200209D
:104D40000A12002002120020024B0146186806F0E9
:104D5000D7B800BF880D0020024B0146186806F046
:104D6000E9B800BF880D0020014B186806F0FCB8B8
:104D7000880D0020024B93F90000C0F3C700704774
:104D80006D120020024B187800F00700704700BF3A
:104D90006D120020034B187810F0070018BF012097
:104DA000704700BF6D120020014B1878704700BF9C
:104DB0006F120020024B1A7810431870704700BF22
:104DC0006F120020024A137823EA00001070704727
:104DD0006F120020014B00221A7070476F120020E2
:104DE000024B1A7810431870704700BF70120020F1
:104DF000024A137823EA00001070704770120020F6
:104E0000014B00221A70704770120020024B1A7872
:104E100010431870704700BF6C120020024A1378CC
:104E200023EA0000107070476C120020014B002232
:104E30001A7070476C120020014B1878704700BF41
:104E40006E120020704708B5FFF7FCFF08BD000098
:104E5000064A5278520708B506D4054A11788142AD
:104E600002D01070FFF7EFFF08BD00BFE025002063
:104E70006E12002008B5044B1A781AB10020187081
:104E8000FFF7E1FF08BD00BF6E12002010B50D4B0B
:104E90000D4A1B7812780D4C13430D4A2068127886
:104EA00013430C4A0370127832B11343037005F0B8
:104EB00085FF08B1FFF7DEFF2068BDE8104005F070
:104EC00011BF00BF6F12002070120020880D00205B
:104ED0006C1200206E120020704708B5FFF7FCFF2F
:104EE00008BD00000A4A5278520710B50CD4094C8C
:104EF00041EAC0012170FFF76DFB94F90000C0F397
:104F0000C700FFF7EAFF10BDBDE81040FFF762BB26
:104F1000E02500206D12002008B5034B002018701A
:104F2000FFF7DBFF08BD00BF6D12002008B50C4A7B
:104F300092F9003023EA000040B2107042070ED10F
:104F4000DBB283420BD0074B5B785B0707D4C0F31F
:104F5000C700FFF749FBBDE80840FFF7DDBF08BD0C
:104F60006D120020E02500200D4A5378C3F3800124
:104F7000814210B5044612D060F38203537010884A
:104F800000F04CF80220FFF7D1FF064B1B78DB073F
:104F900005D521460448BDE8104001F027B810BDF2
:104FA000E025002089120020FAE90008044B587817
:104FB000C0F3800080F0010000F00100FFF7D4BFD3
:104FC000E02500200120FFF7CFBF0020FFF7CCBF76
:104FD00008B502F061FBBDE808404FF6FF71002004
:104FE00002F09EB908B5002002F033F94FF6E963EC
:104FF000C31A5842584108BD022002F01BB90320D1
:1050000002F018B910B5042002F014F90446222069
:1050100002F010F944EA002080B210BD10B5C1B210
:105020000446042002F06EF9210A2220BDE8104057
:1050300002F068B9072002F0FDB80146072002F02F
:1050400061B90F2002F014B901460F2002F076B9C1
:105050000146132002F072B90020FFF7F9BF0000EB
:1050600010B502F019FB4FF6E961002002F058F983
:105070000021022002F046F900210320002402F062
:1050800041F91A4B214604201C6002F03BF92146ED
:10509000222002F037F92146052002F033F921469B
:1050A000062002F02FF9FF21072002F02BF92146FC
:1050B000082002F043F921460D2002F023F9214691
:1050C000182002F03BF92146172002F01BF9214677
:1050D0001C2002F033F92146202002F021F921465C
:1050E000182002F02BF9FEF7DBFC10BDDC110020CC
:1050F000FFF7B6BF01460E2002F004B908B505F06F
:10510000B9FF024B1860024B186008BD78120020EE
:105110007C12002008B505F0ADFF024B1860024B71
:10512000186008BD78120020741200207047704784
:1051300008B5FEF719FD08BD08B5054800F098FA56
:1051400002F0A8FAFFF7F2FFFEF798FC08BD00BFD7
:1051500089B700080120704708B5FFF7FBFF08BDBD
:105160007047704708B5FFF7FBFFFFF7FAFF08BD70
:1051700008B505F07DFF00F097FB05F0F9FBFFF7A0
:10518000D7FF08BD38B50E4D2B780446580711D50A
:10519000D9070FD50B4800F029FF2B78DA0709D57E
:1051A0000948214600F022FF2B78DB0702D507488B
:1051B00000F01CFF2046BDE83840FEF705BE00BFEA
:1051C000891200200FEA000822EA000805EF000813
:1051D0002DE9F74F00F082FB08B1FFF78FFFDFF8F2
:1051E000F0B0DFF8F08000255F46EEB2304600F008
:1051F0008DFA1BF8014B8442814615D10135082DEB
:10520000F3D14FF6FF73ADF8003000238DF8023074
:1052100005F04CFF40F00100ADF8040002AB13E9CB
:105220000300FEF7D9FD31E098F800309B0701D567
:1052300000F072FA84EA0904E3B200220124234256
:105240005FFA82FA39D0FFF787FF19EA040F14BF1B
:105250004FF001084FF0000880B18DF800A08DF8E4
:1052600001608DF8028005F021FF40F00100ADF8EB
:10527000040002AB13E90300FEF7AEFD7B5D42467E
:105280005C40514630467C5504F08AF804F03AFB05
:1052900005F08CFB08B1FFF73DFF0C4C01F0F2FE6E
:1052A00005F018FD237883420DD005F013FD207022
:1052B00003B0BDE8F04FFFF765BF01326400062A76
:1052C000E4B2BCD19AE703B0BDE8F08F80120020B1
:1052D00081120020891200200020704770470000D2
:1052E0003022C1F307235043062202FB030050FA89
:1052F00081F0034B33F8100082B002B0704700BF5A
:1053000048E90008014B33F81000704756EA0008DE
:1053100010B500F0D5F8B0F5A04F044630D2B0F586
:10532000804F80F08980DF2812D8BF2878D8A7283E
:105330000AD8A42868D8012804D0031F9BB2A12B47
:1053400028BF0024204610BDBF2861D10024F9E702
:10535000B0F5005F0BD2FF28F4D8E728F2D9A0F10E
:10536000ED039BB2122BF1D840F4A04027E0B0F53A
:10537000405F5BD30205C3B25BD443F44044E1E732
:10538000B0F5AA4F1DD2B0F5A84FC3B272D2B0F596
:10539000A64F0AD2B0F5A44F63D2B0F5A24F50D3B6
:1053A0004AF2F10040EA0324CCE79C08012003F014
:1053B000030300FA03F343EA441040F40A4084B2C2
:1053C000C0E7B0F5B44F0FD2B0F5B24F5ED2B0F532
:1053D000AC4F52D3A0F5B0439BB2FF2BB6D84AF2E4
:1053E000F00040EA0420EAE7A0F5C0439BB2B3F521
:1053F000005FABD2C0F3042000F0E2F8000200F43A
:10540000F850E4B220433EE0243840F48040D6E730
:105410005834E4B2234B33F8140040F4884491E745
:10542000C03880B2FFF76EFF04468BE7C0F30B0075
:10543000F8E743F4484485E7C0F30B0040F4204408
:1054400080E7C0F30114C3F38100400140EA042067
:1054500003F00303012404FA03F3184340F40C405F
:10546000ADE79C08012003F0030300FA03F343EACD
:105470004410F3E74AF2F40094E7C0B200F0A0F859
:10548000000200F4F85040F400545BE700F00F0015
:1054900000F096F8C4F3031440EA042040F41040EE
:1054A0008DE700BF28EA000807B5ADF804100199A0
:1054B000FFF716FF03B05DF804EBFFF729BF00000C
:1054C000E7284DD8DF2807D8312861D00ED8292801
:1054D00057D02A2863D07047A0F1E003072B3FD8AC
:1054E000DFE803F0123E2126303E3A3F392804D04F
:1054F000822802D035283DD07047304B1B7813F0FE
:10550000030F18BFE02070472C4A1378D9074DD4F9
:10551000527812F0010F23D013F0100F08BFE320D0
:1055200018BF00207047254B1B7813F0040FF2E7DB
:10553000224A137859073BD45278D2073AD413F051
:10554000100FEDE71D4B5A78910709D51B7813F022
:10555000100F08BFE720E3E7184B1B781A07F6D4B3
:105560007047164A1378190726D452789207E6D561
:10557000E420F5E7114B1B7813F0200F18BF29200A
:1055800070470E4B1B7813F0200F18BF3520704763
:105590000A4B1B7813F0400F18BF2A207047074BA7
:1055A0001B7813F0400F18BF312070473920704727
:1055B000E2207047E0207047E6207047E025002099
:1055C000294A1378590707D500F01801082927D16F
:1055D00000F0F70040F00400190707D500F01801AB
:1055E000182926D100F0E70040F014005278D107C6
:1055F00007D500F01801082924D100F0F70040F089
:105600000100920707D500F01802182A23D100F0F4
:10561000E70040F01100DB0648BF00F0E7007047EC
:1056200000F01401042904BF00F0FB0040F0080062
:10563000D2E700F01401142904BF00F0EB0040F0A1
:105640001800D3E700F01101012904BF00F0FE00AB
:1056500040F00800D5E700F01102112A04BF00F065
:10566000EE0040F01800D6E7E0250020002070474B
:10567000014B1860704700BF8C0D0020014B1B6868
:10568000184700BF8C0D0020FFF7A2BC08B500F042
:1056900025F94FF47A7006F020FD00F01FF9002084
:1056A00000F034F8C30705D5FFF7EEFFBDE808406A
:1056B00005F00EBD08BD08B5FFF7E8FF08BD000006
:1056C00008B5FFF78FFC08B9FFF712FDFFF794FC50
:1056D000084B1870FFF796FC074B1880FFF7EBFF9D
:1056E000FFF78DFCFEF741FF044B1868BDE808404A
:1056F000FEF757BF89120020E0250020E0110020AE
:105700007047704708B5FFF7FCFF08BD014B185CF8
:10571000704700BFEA2500202DE9F0410F48104DE9
:10572000DFF84C800F4F104E00F060FC0024214643
:10573000404600F05BFC384600F058FC15F8010BC1
:10574000FEF723FB0146304600F050FC01340748C9
:1057500000F04CFC082CEAD1BDE8F08156EA0008C4
:10576000EA2500201FEA000865EA000805EF0008A6
:1057700022EA0008032006F0B0BC00BF00BF00BF53
:1057800000BF00BF00BF00BF00BF00BF00BF00BF21
:1057900000BF00BF00BF00BF00BF00BF00BF704719
:1057A00008B5FFF7E7FF08BD08B5202282F311888E
:1057B000012100F00F03994020F00F0007F0AFFE29
:1057C000002383F3118808BD38B50C4D082455F823
:1057D000040B421C01D0FFF7E7FF013C14F0FF046B
:1057E000F5D1074D062455F8040B431C01D0FFF7F3
:1057F000DBFF013C14F0FF04F5D138BD84EA00085A
:105800006CEA00082DE9F843254F57F821305C1C5D
:1058100006460D4640D0202282F311884FF0010841
:1058200023F00F0903F00F0308FA03F42146424660
:105830004846A4B207F073FEA9F81A40002484F386
:105840001188FFF79AFF174A062352F8041B481CD9
:1058500024D021F00F0001F00F01006920FA01F1BE
:1058600011F0010F0CBF41460021013B21434FEADB
:10587000480813F0FF03CCB25FFA88F8E5D157F877
:105880002500431C01D0FFF78FFF211E18BF012107
:105890002846FFF785FF7455BDE8F8830021E4E74B
:1058A00084EA00086CEA000810B50824FFF78CFFB2
:1058B000224600210748FCF77FFB224600210648CC
:1058C000FCF77AFB204600F033F8BDE81040FEF705
:1058D00098B900BFEA250020E225002037B5002452
:1058E000CDE90044E1B268460134FFF78BFF082C94
:1058F000F8D10D4822466946FCF72CFA002814BF5F
:105900000125002504D0084822466946FCF752FAD2
:10591000064905482B46082200F00CF8FEF77EF9F0
:10592000284603B030BD00BFE2250020EA25002054
:1059300070470000F8B50F4C06460F4615462BB1D0
:105940000123237005F096FB0B4B186023782BB1D5
:10595000094B186805F0B6FB042808D8F8BDF25CBE
:10596000FA5401339D42FADC00232370F6E700234A
:10597000F8E700BF8A1200208C12002008B505F05D
:1059800045FFFFF7F5FBBDE8084005F059BF08B536
:1059900005F05CFFFFF71CFCBDE8084005F07CBF8C
:1059A00008B505F01FFB05F02FFFFFF7C5FBFFF75C
:1059B000E5FFFFF7ECFFFFF7D5FBFAE770472DE9AE
:1059C000F04F8BB00746149C9DF854B016981646BD
:1059D0008846DDE918520CB922F0100212F48061F9
:1059E000019100D014B312F0200F14BF4FF0410901
:1059F0004FF06109A4460DF1080A0024A9F10A0933
:105A0000BCFBF0FE00FB1ECE5FFA8EF1BEF1090F6B
:105A100094BF30314944C9B284450AF8011BBCFB2C
:105A2000F0F104F1010401D3202C12D112F0020A8A
:105A300023D102F0010E4DB1BEF1000F06D0BBF133
:105A4000000F02D112F00C0F00D0013D4FF0300CCE
:105A500007E08C46D4E7202C06D002A901F804C048
:105A600001341799A142F6D84FF0300CBEF1000F67
:105A700003D0A54201D91F2C42D9D10620D50199C6
:105A8000002943D1002C41D01799A14201D0AC424A
:105A90003CD1611E39D0102842D1023C910641D43C
:105AA0001F2C18D80AA92144782001F8200C0134B1
:105AB0001F2C10D80AA92144302001F8200C0134F1
:105AC0001F2C08D8BBF1000F32D00AA921442D2089
:105AD00001F8200C0134920749D0B146A144484650
