:020000040800F2
:1000000000040020C1020008C3020008C302000867
:10001000C3020008C3020008C3020008C3020008AC
:10002000C3020008C3020008C3020008B99D00080B
:10003000C3020008C3020008C3020008C30200088C
:10004000C3020008C3020008C3020008C30200087C
:10005000C3020008C3020008C3020008C30200086C
:10006000C3020008C3020008C30200087DAC0008F8
:1000700091AC0008A5AC0008B9AC0008CDAC0008F4
:10008000E1AC0008F5AC0008C3020008C302000898
:10009000C3020008C3020008C3020008C30200082C
:1000A00019A700081DA7000821A7000825A7000818
:1000B0007DB2000851B6000865B60008BDAE000864
:1000C000CDAF0008C3020008C3020008C302000845
:1000D000C3020008C3020008C3020008C3020008EC
:1000E000C3020008C3020008C3020008C3020008DC
:1000F00031B40008C3020008C3020008C3020008AC
:10010000C3020008C3020008C3020008C3020008BB
:10011000C3020008C302000809B400081DB40008A7
:1001200009AD00081DAD000831AD000845AD00085F
:1001300059AD0008C3020008C3020008C30200084A
:10014000C3020008C3020008C3020008C30200087B
:10015000C3020008C3020008C3020008C30200086B
:10016000C3020008C3020008C3020008BDB60008AD
:10017000C3020008C3020008C3020008C30200084B
:10018000C3020008C3020008C3020008C30200083B
:10019000C3020008C3020008C3020008C30200082B
:1001A00072B6394880F30888384880F3098838489F
:1001B0004EF60851CEF20001086040F20000CCF289
:1001C00000004EF63471CEF200010860BFF34F8F8D
:1001D000BFF36F8F40F20000C0F2F0004EF688517E
:1001E000CEF200010860BFF34F8FBFF36F8F4FF067
:1001F0000000E1EE100A4EF63C71CEF200010860FC
:10020000062080F31488BFF36F8F09F089FB09F093
:10021000CBFA4FF055301F491B4A91423CBF41F881
:10022000040BFAE71C49194A91423CBF41F8040B00
:10023000FAE71A491A4A1B4B9A423EBF51F8040B7F
:1002400042F8040BF8E700201749184A91423CBFD6
:1002500041F8040BFAE709F067FB09F062FB144C64
:10026000144DAC4203DA54F8041B8847F9E704F054
:1002700071FB114C114DAC4203DA54F8041B884752
:10028000F9E709F04FBB000000040020000C00203B
:1002900000000008000000200004002090C70008B3
:1002A000000C00203412002038120020C02A002048
:1002B000A0010008A0010008A0010008A00100089A
:1002C0006EE700F000F8FEE72DE9F04F2DED108A03
:1002D000C1F80CD0C3689D46BDEC108ABDE8F08F14
:1002E000002383F311882846A047002009F036FD3B
:1002F000FEE709F0D3FC00DFFEE700002DE9F04344
:100300002DED028B8BB057EC106B55EC114B00F0C0
:10031000EBF92B4BB0EE408AF0EE608A93F9008047
:10032000B8F1FF3F2CD022462B462046294601F04B
:10033000DDFE28BB32463B463046394601F0D6FE4C
:100340008146E8B9002200232046294601F09CFEA0
:10035000B0B11C4BCDF820900122CDE90267CDE968
:1003600004458DE80C00B8F1000F12D1CDE9066705
:10037000684601F035F9B8B1089BE3B99DED068BED
:10038000B0EE480AF0EE680A0BB0BDEC028BBDE897
:10039000F083002200231046194601F037FDB8F122
:1003A000020FCDE90601E3D102F08EF821230360AC
:1003B000089B002BE2D002F087F8089B0360DDE782
:1003C000000C002078C700082DE9F04F2DED028BBE
:1003D000DFF80CA38BB057EC106B55EC114B00F011
:1003E000B3FA9AF90080B0EE408AF0EE608AB8F174
:1003F000FF3F34D022462B462046294601F076FEA8
:10040000834660BB32463B463046394601F06EFEBD
:100410008146002840F09F80304639460022002364
:1004200001F032FE20B3002200232046294601F0CD
:100430002BFE8346002867D09FED9F7B0122A44BB3
:10044000CDF820900092CDE90267CDE904458DED0D
:10045000067B0193B8F1000F49D09FED998BB0EE68
:10046000480AF0EE680A0BB0BDEC028BBDE8F08FD5
:10047000B0EE480AF0EE680A01F0AAF880460028BB
:1004800000F084804FF000084FF0000951EC180B89
:1004900042464B4601F0F8FD0028E0D047EC106BD7
:1004A00001F096F80028DAD045EC104B01F090F8F6
:1004B0000028D4D09AF90030854A01920421002204
:1004C000022BCDE90267CDE90445CDE9068900910B
:1004D000089203D0684601F083F860B901F0F4FF98
:1004E0002223036007E09FED747B8DED067B684659
:1004F00001F076F850B3089B1BB101F0E5FF089BB3
:1005000003609DED068BAAE745EC104B01F060F807
:100510000028A4D0002200232046294601F0BEFD79
:1005200000289CD06A4A9AF90030CDF820B0012109
:10053000CDE90267CDE904458DE80600002BD2D055
:1005400064490020022BCDE90601D0D101F0BCFFA7
:1005500021230360CFE7002200232046294601F033
:1005600093FD00283FF47BAF9FED558B584BCDF8A2
:1005700020B00122B8F1020FCDE90267CDE90445B0
:100580008DED068B8DE80C00B1D168E747EC106B60
:1005900001F01EF800283FF475AF45EC104B01F058
:1005A00017F800283FF46EAF53EC182B18EE100A22
:1005B000194601F09BFD002861D103239AF90080C0
:1005C0000093434B0890CDE90267CDE904450193C0
:1005D000B8F1000F2DD1DFF80C914FF060480022E8
:1005E000002330463946CDE9068901F057FD002841
:1005F0003FF470AF0022384B2046294601F0DCFA68
:1006000004460D4645EC104B00F0F6FF204653EC37
:10061000102B294601F038FD70BB304B9AF9008051
:100620004FF06042CDE90623B8F1020F7FF452AFDC
:1006300054E79FED257B00220023304639468DED9F
:10064000067B01F02BFD0028EED00022224B204635
:10065000294601F0B1FA04460D4645EC104B00F076
:10066000CBFF204653EC102B294601F00DFD18B9A5
:10067000184B0022CDE906239AF90080D4E7144BE9
:100680009AF90090CDF820800122CDE90267CDE9EA
:1006900004458DE80C00B9F1000F3FF424AF0022AF
:1006A00000231046194601F0B1FBB9F1020FCDE964
:1006B00006013FF44BAF1AE7000000000000000005
:1006C000000000000000F03F000000000000F07F8C
:1006D00080C700080000F0FF0000E03FFFFFEFC709
:1006E000000C0020FFFFEF472DE9F84F59EC118B6C
:1006F00029F0004A58EA0A0255EC104B29D08A48E2
:1007000025F000428242294623DCC8F1000040EA7D
:100710000800DFF82CE24AEAD070704511EE10CAEA
:1007200017D852454E4610EE10BA11EE107A10EE60
:10073000103A05F0004E1ADC2ADB444528D316D1C6
:100740007A4B4FEADE7E03EBCE0393ED000BBDE860
:10075000F88F42464B462046294601F02DFA0246C4
:100760000B4601F053FB41EC100BBDE8F88FB2F5DE
:10077000801F11DA002A40F09D80BBF1000F5C461B
:100780006B480CDD6400002C00F1FF30FADC06E061
:1007900045EC104BBDE8F88F1015A0F2FF30BAF50C
:1007A000801F0EDABAF1000F40F09880BCF1000F04
:1007B00065465F4C09DD6D00002D04F1FF34FADC65
:1007C00003E04FEA2A54A4F2FF345A4DA84257DB03
:1007D000C1F3130242F4801256498C425CDBC6F32B
:1007E000130646F48016001B07E051EA050312D0F9
:1007F000EA0F02EB41026B000138DD1B911B98B13F
:10080000BB4238BF01F1FF310029EEDAD90F01EB0D
:1008100042025B00F0E7454B4FEADE7E03EBCE0E73
:100820009EED000BBDE8F88FBB420E4638BF01F1CC
:10083000FF36002EACBFDB1B164656EA0302EAD099
:100840003D498E4208DCDA0F02EB46068E4204F187
:10085000FF344FEA4303F6DD364A944247DA121B6F
:10086000142A51DCC2F1200106FA01F1D3401943E8
:10087000164146EA0E030A4643EC102BBDE8F88FFA
:100880002D1A1F2D24DCC5F120032BFA03F3AA40F7
:100890001A430BFA05F39FE7091B1F2912DCC1F16C
:1008A00020060AFA01FA2CFA06F646EA0A060CFABB
:1008B00001F798E71F48D4026400002C00F1FF30D4
:1008C000FADC6CE71D4E361B0CFA06F600278AE7A9
:1008D0001A4A121A0BFA02F200237DE7154C4FEA6E
:1008E000CA256D00002D04F1FF34FADC6DE7A6F592
:1008F000801646EA0E0E04F2FF344EEA0451184602
:1009000041EC100BBDE8F88F1F2A07DCC2F1200173
:100910008E40D34046EA03017646AAE7074B1B1BED
:1009200046FA03F17646A4E7FFFFEF7F80BD00089B
:10093000EDFBFFFF02FCFFFFFFFF0F00E2FBFFFFED
:100940000000F07F000000002DE9F04F51EC110B8A
:1009500021F0004858EA000493B03ED053EC102B2D
:10096000714E23F00044B44210EE10AA1D462DDC57
:10097000894611EE10EA28D0B04527DC6A4EB04512
:1009800000F08380002D16461F46CDE90001C0F21D
:1009900081804FF0000BBEF1000F2FD1624B9845C4
:1009A00000F09580614B984568D0B9F1804F00F018
:1009B000D1835F4B994521D1002D1FDB47EC106B94
:1009C00013B0BDE8F04F00F02FBD6AB104F1404410
:1009D00004F5801454EA0A0308D15449002041EC7C
:1009E000100B13B0BDE8F08FA045C7DD514813B020
:1009F000BDE8F04F00F0F8BD4FF0000B47EC106B76
:100A000000F0DEFD51EC100BBAF1000F1AD124B149
:100A1000464B25F040429A4214D1B9F1000FC0F282
:100A2000D383002DDBDA04F1404404F5801454EA4A
:100A30000B0300F0AF84BBF1010FD0D101F10043F3
:100A40001946CCE7ED0F05F1FF3A5BEA0A0353D0F4
:100A5000394B984576DD03F10473984540F30684DD
:100A6000364B9C4253DDB9F1000F53DD2CA3D3E983
:100A700000231046194601F09FF8B0E7B9F1000FC6
:100A8000C0F25A8430463946A9E7BEF1000F3FF460
:100A900079AF9BE72A4B98452BDCA3F1547398451B
:100AA0007FF777AF4FEA2853A3F2FF33142B40F3BD
:100AB0005984C3F134032EFA03F202FA03F39E457C
:100AC0007FF467AF02F00102C2F1020B63E704F1A9
:100AD000404303F5801353EA0A033FF47EAF174BFC
:100AE0009C4240F33E83B9F1000F13DBDDE90001C6
:100AF00075E74FF0020B4EE732463B46104619466B
:100B000000F0A6FE02460B4601F080F967E7B9F156
:100B1000000FABDB0020002161E700BFAFF30080D6
:100B20009C7500883CE4377E0000F07F0000F03FB9
:100B30000000E03F7CC700080000E041FFFFEF3FFE
:100B4000FFFF3F43B4F5801F4FF0000205DAD64B9C
:100B500001F032F86FF034020C462315D34EC4F383
:100B60001304A3F2FF33134444F07F55B4421A46F2
:100B70000D9345F4401540F32E83CD4B9C4240F33A
:100B80000D849FEDB37B8DED087B8DED0E7B9FED8E
:100B9000B27B13468DED067B01330D93A5F58015D1
:100BA0004FF00008DDE906232946CDE90A0100F0EF
:100BB0004FFEDDE9062306460F46DDE90A0100F097
:100BC00049FE02460B460020BA4901F01FF90346D0
:100BD0000C46CDE9103402460B463046394600F04B
:100BE000EBFF6B1043F0005303F5002303EB080504
:100BF0000A4600230146CDE902120293DDE902898B
:100C00000024CDE904122B4622464046494600F016
:100C1000D3FF02460B463046394600F019FEDDE9A7
:100C2000062306460F462046294600F011FE0246DE
:100C30000B46DDE90A0100F00BFE42464B4600F090
:100C4000BBFF02460B463046394600F001FEDDE9A7
:100C5000102300F0B1FFDDE90445CDE9060122468D
:100C60002B462046294600F0A7FF7DA3D3E90023A9
:100C700004460D4600F0A0FF7BA3D3E9002300F05B
:100C8000E9FD22462B4600F097FF79A3D3E9002324
:100C900000F0E0FD22462B4600F08EFF76A3D3E95C
:100CA000002300F0D7FD22462B4600F085FF74A3F9
:100CB000D3E9002300F0CEFD22462B4600F07CFF56
:100CC00071A3D3E9002300F0C5FD224606460F4676
:100CD0002B462046294600F06FFF02460B46304661
:100CE000394600F069FF424604460D464B46DDE9B1
:100CF000040100F0AFFDDDE9062300F05DFF2246B0
:100D00002B4600F0A7FD424606460F464B4640469E
:100D1000494600F051FF0022674BCDE90A0100F07F
:100D200099FD32463B4600F095FD02980D4604467B
:100D300022462B464046494600F03EFF00228046B0
:100D400089465D4B2046294600F082FDDDE90A23F5
:100D500000F07EFD02460B463046394600F078FD35
:100D6000DDE9042300F028FF224606460F462B4605
:100D7000DDE9060100F020FF02460B463046394609
:100D800000F068FD06460F4602460B4640464946BF
:100D9000CDE9048900F05EFD02983DA3D3E900236C
:100DA00004460D4600F008FFDDE90423804689462D
:100DB0002046294600F04CFD02460B463046394697
:100DC00000F046FD34A3D3E9002300F0F5FE34A380
:100DD000D3E9002306460F462046294600F0ECFEE4
:100DE00002460B463046394600F034FDDDE90E235D
:100DF00000F030FD06460D980F4600F077FE3246B3
:100E000004460D463B464046494600F023FDDDE9D9
:100E1000082300F01FFD22462B4600F01BFD029820
:100E200022462B46CDE9020100F012FDDDE9082340
:100E300000F00EFD42464B4600F00AFD02460B460E
:100E40003046394600F004FD8046894636E000BF52
:100E50000000000000000000000000000000F03F63
:100E6000EF4E454A287ECA3F65DBC9934A86CD3F8F
:100E700001411DA96074D13F4D268F515555D53F75
:100E8000FFAB6FDBB66DDB3F033333333333E33F0D
:100E9000000000E009C7EE3FFD033ADC09C7EE3F62
:100EA000F5015B14E02F3EBE000040438E98030026
:100EB00079B60B000000F03F000008400BF1FF3353
:100EC00053EA0A0300F07B819FEDC97B8DED067B21
:100ED000DDE900AB53465C46CDE9003400230093C6
:100EE000DDE90045504622462B46594600F0B0FC4D
:100EF000DDE9022300F060FE524606460F465B46DF
:100F00004046494600F058FE02460B4630463946F8
:100F100000F0A0FC2246804689462B46DDE902010E
:100F2000CDE9048900F048FE0B46024606460F460E
:100F30004046494600F08EFCC74B994204460D4698
:100F40008A4640F3188101F13F4303F5E003034370
:100F500040F0FA81A8A3D3E90023DDE9040100F001
:100F600079FC3246804689463B462046294600F0B9
:100F70006FFC02460B464046494601F0ADF800289A
:100F800040F0E281A8464FEA28534FF48012A3F2C2
:100F9000FE3342FA03F35344C3F30A52AF4DA2F2B5
:100FA000FF321541C3F3130423EA05010020C2F107
:100FB000140B44F48014BAF1000F02460B4644FAB5
:100FC0000BFB30463946B8BFCBF1000B00F040FCBC
:100FD00002460B4606460F46DDE9040100F03AFCE6
:100FE0004FEA0B5A0D46002485A3D3E9002320467F
:100FF000294600F0E1FD3246804689463B462046C0
:10100000294600F025FC02460B46DDE9040100F00C
:101010001FFC7DA3D3E9002300F0CEFD7CA3D3E920
:10102000002306460F462046294600F0C5FD02462D
:101030000B463046394600F00DFC06460F46024688
:101040000B464046494600F005FC42464B460446E6
:101050000D4600F0FDFB02460B463046394600F0D7
:10106000F7FB2246804689462B462046294600F05B
:10107000A3FD69A3D3E9002306460F4600F09CFDBB
:1010800067A3D3E9002300F0E3FB32463B4600F0C0
:1010900093FD65A3D3E9002300F0DCFB32463B4619
:1010A00000F08AFD62A3D3E9002300F0D1FB3246B1
:1010B0003B4600F081FD60A3D3E9002300F0CAFBAA
:1010C00032463B4600F078FD02460B462046294654
:1010D00000F0BEFB06460F4602460B462046294658
:1010E00000F06AFD0022CDE900014FF08043304658
:1010F000394600F0ADFB02460B46DDE9000100F089
:1011000085FE424606460F464B462046294600F0DD
:1011100053FD42464B4600F09DFB02460B463046CF
:10112000394600F095FB22462B4600F091FB024623
:101130000B4600204A4900F08BFB8A44BAF5801F19
:1011400002460B46C0F23A815146DDE9062300F023
:1011500033FD44E432463B463046394600F02CFD30
:101160003DE4B9F1000FBFF6D5ACDDE90034184617
:1011700004F1004133E43B4B21F00048984540F333
:101180000081394B0B4403430CD132463B4600F0FF
:101190005FFB02460B46DDE9040100F089FF0028F1
:1011A0003FF4F1AEDDE9060125A3D3E9002300F009
:1011B00003FD23A3D3E9002300F0FEFC0FE49FED21
:1011C000227B8DED067B83E602460B4600202449F8
:1011D00000F01CFE25E49FED1E7B8DED087B8DED60
:1011E0000E7B9FED037B4FF000088DED067BD9E46D
:1011F000000000000000F03FFE822B654715973C81
:1012000000000000432EE63FEF39FAFE422EE63F93
:10121000396CA80C615C20BED0A4BE726937663EF2
:10122000F16BD2C541BDBB3E2CDE25AF6A56113FE6
:1012300093BDBE166CC1663F3E5555555555C53FCD
:1012400059F3F8C21F6EA501000000000000F0BFB6
:101250000000000000000000FFFF8F40FFFF0F00B4
:101260000000F03FFFCB904000346F3F6A4B9C4240
:101270007FF74DAC694B9C423FF7F5AB0022674BC3
:1012800000F0E6FA54A3D3E9002304460D4600F02B
:1012900093FC53A3D3E90023804689462046294680
:1012A00000F08AFC0022CDE902015D4B2046294670
:1012B00000F082FC02460B464BA1D1E9000100F090
:1012C000C7FA22462B4600F077FC02460B46002068
:1012D000544900F0BDFA22462B4606460F462046EA
:1012E000294600F069FC02460B463046394600F0BC
:1012F00063FC3FA3D3E9002300F05EFC02460B46EB
:10130000DDE9020100F0A4FA02460B4604460D4650
:101310004046494600F09EFA42464B460020CDE941
:10132000020100F095FA02460B462046294600F0DD
:101330008FFA80468946C1E532463B460020374950
:1013400000F064FDFFF74BBBDDE906012AA3D3E9FA
:10135000002300F031FC28A3D3E9002300F02CFC8B
:10136000FFF73DBBBEF1000F7FF446ABC3F11403A2
:1013700048FA03F202FA03F3984527D0F346FFF741
:1013800011BB284B98453FF7FEADDDE9002392469F
:10139000934628E602460B46FFF7B0BB9FED187B4D
:1013A0008DED087B9FED187B8DED0E7B9FED187BFF
:1013B0004FF480288DED067BFFF7F4BB584643ECD5
:1013C000102B00F0ADF951EC100BBEE602F001025B
:1013D000C2F1020BFFF7E6BA000000604715F73FC5
:1013E00044DF5DF80BAE543E555555555555D53F28
:1013F000FE822B654715F73F9C7500883CE4377EDD
:101400000000004003B8E23F06D0CF43EBFD4C3E66
:10141000000000000000F83FFEFFEF3F0000F03F3B
:101420000000D03F0000E03F2DE9F041634855EC5B
:10143000104BA84300F09580002D2B4610EE102A8B
:1014400070DD2F157DD0A7F2FF37C3F31303F90723
:1014500043F4801361D403EBD27100260B447F1058
:101460005200B64616204FF400110EEB01049C42C8
:101470004FEAD2754FEA420203DC1B1B04EB010E5C
:101480000E44013805EB43034FEA5101EDD1844688
:1014900020244FF0004109E020D003EBD275013C3D
:1014A0004FEA51012B444FEA420220D0734501EB31
:1014B0000C05F1DD002D05EB010C09DBF046954232
:1014C000A3EB0E0300D9013B521B0844C646E4E7D8
:1014D000BCF1000FF2DB0EF10108F0E79542DCD819
:1014E000002D05EB010C4EDB98460023ECE713437F
:1014F00002D0421C4BD0013040087110F30701F1BB
:101500007F5101F5001148BF40F0004001EB075347
:10151000024643EC102BBDE8F0815B0003EBD27375
:10152000520098E710EE101A25F00040014328D031
:10153000ADBB2F46D30A153F5205002BFAD0DE0271
:1015400028D4002400E004465B00DD0204F1010021
:10155000F9D5C0F1200122FA01F10B433F1B824073
:1015600071E710EE102A2B4610EE100A294600F003
:1015700023FB22462B4600F06DF941EC100BBDE831
:10158000F081BDE8F081BCF1000FA4DAACE70136D0
:101590002046B2E7002020214FF0FF34DBE710EEB9
:1015A000102A2B462046294600F052F902460B46E7
:1015B00000F02CFC41EC100BBDE8F0810000F07F46
:1015C00053EC102B23F0004343EC102B704700BF6B
:1015D00010EE903A43F0004000F58010C00F7047C5
:1015E00000207047000000009FED010B704700BF16
:1015F000000000000000F87FF0B553EC102BC3F39F
:101600000A56A6F2FF30132883B019464FEAD37466
:1016100010EE105A2FDC002849DB3E4E064103EA4B
:10162000060717432CD0760833401D430CD04FF4E7
:101630008023132821EA060643FA00F141EA060155
:101640000CBF4FF000450025334800EBC4042A4688
:10165000D4E9004510462B46224600F0FBF8CDE9C0
:10166000000122462B46DDE9000100F0F1F841ECD3
:10167000100B03B0F0BD332806DDB0F5806F40D00D
:1016800043EC102B03B0F0BDA6F213464FF0FF3031
:10169000F0400242F4D040080242D5D04FF08043DF
:1016A00025EA000043FA06F646EA0005CCE723F0F7
:1016B00000401043E4D0C3F31300104347420743F4
:1016C000154D5E0C3F0B07F40023760405EBC402B6
:1016D00043EA0601D2E9006710EE100A32463B46A3
:1016E00000F0B8F8CDE900013B463246DDE90001E3
:1016F00000F0AEF821F0004343EAC47141EC100B56
:10170000C0E710EE100A194600F0A4F841EC100BE7
:10171000B8E700BFFFFF0F0090BD00080000000009
:1017200053EC102B70B5C3F30A541946054614BB8D
:1017300023F0004111432AD019460022384B394E7C
:1017400010EE100A00F038FAB54202460B461FDBD5
:10175000C1F30A54363C2C4440F2FE7084421FDC34
:10176000002C2DDD21F0FF4121F4E00141EA04537A
:1017700043EC102B70BD40F2FF708442EBD110EEB1
:10178000100A194600F066F841EC100B70BD70BDF0
:101790001FA3D3E9002300F00FFA41EC100B70BD3A
:1017A00043EC112B9FED1C0B00F040F81AA3D3E97A
:1017B000002351EC100B00F0FFF941EC100B70BD51
:1017C00014F1350F13DA4CF250318D4243EC112BEA
:1017D000E8DC9FED0F0B00F029F80DA3D3E90023FF
:1017E00051EC100B00F0E8F941EC100B70BD21F04A
:1017F000FF4121F4E001363441EA04531046194612
:101800000022094B00F0D8F941EC100B70BD00BF6D
:1018100059F3F8C21F6EA5019C7500883CE4377E21
:1018200000005043B03CFFFF0000903C53EC102BF5
:1018300011EE900A23F0004100F0004041EA00035D
:1018400043EC102B704700BF81F0004102E000BF65
:1018500083F0004330B54FEA41044FEA430594EA70
:10186000050F08BF90EA020F1FBF54EA000C55EAAB
:10187000020C7FEA645C7FEA655C00F0E2804FEA7C
:101880005454D4EB5555B8BF6D420CDD2C4480EA5E
:10189000020281EA030382EA000083EA010180EA8E
:1018A000020281EA0303362D88BF30BD11F0004FDC
:1018B0004FEA01314FF4801C4CEA113102D0404212
:1018C00061EB410113F0004F4FEA03334CEA13334D
:1018D00002D0524263EB430394EA050F00F0A78065
:1018E000A4F10104D5F1200E0DDB02FA0EFC22FA60
:1018F00005F2801841F1000103FA0EF2801843FA54
:1019000005F359410EE0A5F120050EF1200E012A44
:1019100003FA0EFC28BF4CF0020C43FA05F3C01882
:1019200051EBE37101F0004507D54FF0000EDCF1FB
:10193000000C7EEB00006EEB0101B1F5801F1BD3A4
:10194000B1F5001F0CD349085FEA30004FEA3C0CA8
:1019500004F101044FEA445212F5800F80F09A809E
:10196000BCF1004F08BF5FEA500C50F1000041EBA2
:10197000045141EA050130BD5FEA4C0C404141EBA6
:10198000010111F4801FA4F10104E9D191F0000FCD
:1019900004BF01460020B1FA81F308BF2033A3F150
:1019A0000B03B3F120020CDA0C3208DD02F1140C47
:1019B000C2F10C0201FA0CF021FA02F10CE002F182
:1019C0001402D8BFC2F1200C01FA02F120FA0CFC7B
:1019D000DCBF41EA0C019040E41AA2BF01EB0451C4
:1019E000294330BD6FEA04041F3C1CDA0C340EDCC2
:1019F00004F11404C4F1200220FA04F001FA02F305
:101A000040EA030021FA04F345EA030130BDC4F1C2
:101A10000C04C4F1200220FA02F001FA04F340EAB7
:101A20000300294630BD21FA04F0294630BD94F068
:101A3000000F83F4801306BF81F480110134013D4F
:101A40004EE77FEA645C18BF7FEA655C29D094EAC0
:101A5000050F08BF90EA020F05D054EA000C04BF3E
:101A60001946104630BD91EA030F1EBF0021002029
:101A700030BD5FEA545C05D14000494128BF41F0C8
:101A8000004130BD14F580043CBF01F5801130BD2C
:101A900001F0004545F0FE4141F470014FF00000B7
:101AA00030BD7FEA645C1ABF194610467FEA655C68
:101AB0001CBF0B46024650EA013406BF52EA03350A
:101AC00091EA030F41F4002130BD00BF90F0000FF8
:101AD00004BF0021704730B54FF4806404F1320434
:101AE0004FF000054FF0000150E700BF90F0000FED
:101AF00004BF0021704730B54FF4806404F1320414
:101B000010F0004548BF40424FF000013EE700BFE3
:101B100042004FEAE2014FEA31014FEA02701FBF73
:101B200012F07F4393F07F4F81F06051704792F045
:101B3000000F14BF93F07F4F704730B54FF46074BF
:101B400001F0004521F0004120E700BF50EA01020A
:101B500008BF704730B54FF000050AE050EA0102B7
:101B600008BF704730B511F0004502D5404261EB27
:101B700041014FF4806404F132045FEA915C3FF468
:101B8000DCAE4FF003025FEADC0C18BF03325FEA01
:101B9000DC0C18BF033202EBDC02C2F1200300FAB6
:101BA00003FC20FA02F001FA03FE40EA0E0021FADB
:101BB00002F11444C1E600BF70B54FF0FF0C4CF4C5
:101BC000E06C1CEA11541DBF1CEA135594EA0C0F7B
:101BD00095EA0C0F00F0DEF82C4481EA030621EAB6
:101BE0004C5123EA4C5350EA013518BF52EA0335F1
:101BF00041F4801143F4801338D0A0FB02CE4FF0A3
:101C00000005E1FB02E506F00042E0FB03E54FF0D2
:101C10000006E1FB03569CF0000F18BF4EF0010ECA
:101C2000A4F1FF04B6F5007F64F5407404D25FEAC6
:101C30004E0E6D4146EB060642EAC62141EA555179
:101C40004FEAC52040EA5E504FEACE2EB4F1FD0CBB
:101C500088BFBCF5E06F1ED8BEF1004F08BF5FEA39
:101C6000500E50F1000041EB045170BD06F00046EB
:101C700046EA010140EA020081EA0301B4EB5C0498
:101C8000C2BFD4EB0C0541EA045170BD41F4801190
:101C90004FF0000E013C00F3AB8014F1360FDEBFB5
:101CA000002001F0004170BDC4F10004203C35DA91
:101CB0000C341BDC04F11404C4F1200500FA05F314
:101CC00020FA04F001FA05F240EA020001F00042B5
:101CD00021F0004110EBD37021FA04F642EB06012B
:101CE0005EEA430E08BF20EAD37070BDC4F10C0455
:101CF000C4F1200500FA04F320FA05F001FA04F219
:101D000040EA020001F0004110EBD37041F1000104
:101D10005EEA430E08BF20EAD37070BDC4F120050F
:101D200000FA05F24EEA020E20FA04F301FA05F277
:101D300043EA020321FA04F001F0004121FA04F21F
:101D400020EA020000EBD3705EEA430E08BF20EAEF
:101D5000D37070BD94F0000F0FD101F00046400029
:101D600041EB010111F4801F08BF013CF7D041EAAB
:101D7000060195F0000F18BF704703F000465200AF
:101D800043EB030313F4801F08BF013DF7D043EA80
:101D90000603704794EA0C0F0CEA135518BF95EA36
:101DA0000C0F0CD050EA410618BF52EA4306D1D1BD
:101DB00081EA030101F000414FF0000070BD50EADC
:101DC000410606BF1046194652EA430619D094EA66
:101DD0000C0F02D150EA013613D195EA0C0F05D150
:101DE00052EA03361CBF104619460AD181EA0301A4
:101DF00001F0004141F0FE4141F470014FF000005C
:101E000070BD41F0FE4141F4780170BD70B54FF0F6
:101E1000FF0C4CF4E06C1CEA11541DBF1CEA135576
:101E200094EA0C0F95EA0C0F00F0A7F8A4EB050458
:101E300081EA030E52EA03354FEA013100F088804F
:101E40004FEA03334FF0805545EA131343EA126318
:101E50004FEA022245EA111545EA10654FEA0026CD
:101E60000EF000419D4208BF964244F1FD0404F586
:101E7000407402D25B084FEA3202B61A65EB0305E2
:101E80005B084FEA32024FF480104FF4002CB6EB9F
:101E9000020E75EB030E22BFB61A754640EA0C001F
:101EA0005B084FEA3202B6EB020E75EB030E22BF5F
:101EB000B61A754640EA5C005B084FEA3202B6EBA0
:101EC000020E75EB030E22BFB61A754640EA9C005F
:101ED0005B084FEA3202B6EB020E75EB030E22BF2F
:101EE000B61A754640EADC0055EA060E18D04FEAED
:101EF000051545EA16754FEA06164FEAC30343EA8D
:101F000052734FEAC2025FEA1C1CC0D111F4801F59
:101F10000BD141EA00014FF000004FF0004CB6E752
:101F200011F4801F04BF01430020B4F1FD0C88BFF1
:101F3000BCF5E06F3FF6AFAEB5EB030C04BFB6EBFC
:101F4000020C5FEA500C50F1000041EB045170BDEF
:101F50000EF0004E4EEA113114EB5C04C2BFD4EB1C
:101F60000C0541EA045170BD41F480114FF0000EA0
:101F7000013C90E645EA060E8DE60CEA135594EA1C
:101F80000C0F08BF95EA0C0F3FF43BAF94EA0C0F1F
:101F90000AD150EA01347FF434AF95EA0C0F7FF494
:101FA00025AF104619462CE795EA0C0F06D152EAE8
:101FB00003353FF4FDAE1046194622E750EA4106CC
:101FC00018BF52EA43067FF4C5AE50EA41047FF4DD
:101FD0000DAF52EA43057FF4EBAE12E74FF0FF3C42
:101FE00006E000BF4FF0010C02E000BF4FF0010C13
:101FF0004DF804CD4FEA410C7FEA6C5C4FEA430C8C
:1020000018BF7FEA6C5C1BD001B050EA410C0CBFDA
:1020100052EA430C91EA030F02BF90EA020F00203C
:10202000704710F1000F91EA030F58BF994208BFA3
:1020300090422CBFD8176FEAE37040F00100704760
:102040004FEA410C7FEA6C5C02D150EA013C07D1B7
:102050004FEA430C7FEA6C5CD6D152EA033CD3D002
:102060005DF8040B704700BF8446104662468C46FC
:102070001946634600E000BF01B5FFF7B7FF00282F
:1020800048BF10F1000F01BD4DF808EDFFF7F4FF58
:102090000CBF012000205DF808FB00BF4DF808EDE3
:1020A000FFF7EAFF34BF012000205DF808FB00BF06
:1020B0004DF808EDFFF7E0FF94BF012000205DF828
:1020C00008FB00BF4DF808EDFFF7CEFF94BF0120DD
:1020D00000205DF808FB00BF4DF808EDFFF7C4FFD6
:1020E00034BF012000205DF808FB00BF4FEA410C1F
:1020F0007FEA6C5C02D150EA013C0AD14FEA430C02
:102100007FEA6C5C02D152EA033C02D14FF000003E
:1021100070474FF0010070474FEA4102B2F1E043CF
:1021200024BFB3F5001CDCF1FE5C0DD901F0004CBE
:102130004FEAC0024CEA5070B2F1004F40EB83000E
:1021400008BF20F00100704711F0804F21D113F13A
:102150003872BCBF01F00040704741F480114FEA73
:102160005252C2F11802C2F1200C10FA0CF320FAFC
:1021700002F018BF40F001004FEAC1234FEAD32319
:1021800003FA0CFC40EA0C0023FA02F34FEA430383
:10219000CCE77FEA625307D150EA01331EBF4FF00C
:1021A000FE4040F44000704701F0004040F0FE4027
:1021B00040F40000704700BF53B94AB9002908BF76
:1021C00000281CBF4FF0FF314FF0FF3000F07AB90C
:1021D000ADF1080C6DE904CE00F006F8DDF804E07E
:1021E000DDE9022304B070472DE9F0478C460D4627
:1021F0000446089E002B51D18A4217466DD9B2FA87
:1022000082FEBEF1000F0BD0CEF1200C01FA0EF5CC
:1022100020FA0CFC02FA0EF74CEA050C00FA0EF458
:102220004FEA174A250CBCFBFAF81FFA87F90AFB9C
:1022300018CC45EA0C4508FB09F3AB420AD9ED1965
:1022400008F1FF3280F02381AB4240F22081A8F1F7
:1022500002083D44ED1AA4B2B5FBFAF00AFB105592
:1022600044EA054400FB09F9A14509D9E41900F144
:10227000FF3380F00A81A14540F2078102383C44D7
:10228000A4EB090440EA08400021002E61D024FAA2
:102290000EF4002334607360BDE8F0878B4207D9E9
:1022A000002E54D0002186E821000846BDE8F087C2
:1022B000B3FA83F1002940F08E80AB4202D3824210
:1022C00000F2FA80841A65EB03050120AC46002E6B
:1022D0003FD086E81010BDE8F08712B90127B7FBA0
:1022E000F2F7B7FA87FEBEF1000F34D1EB1B3A0CC0
:1022F0001FFA87FC0121B3FBF2F8250C02FB18330F
:1023000045EA03450CFB08F3AB4207D9ED1908F188
:10231000FF3002D2AB4200F2D1808046ED1AA3B268
:10232000B5FBF2F002FB105543EA05440CFB00FC40
:10233000A44507D9E41900F1FF3302D2A44500F205
:10234000B8801846A4EB0C0440EA08409DE73146EB
:102350003046BDE8F087CEF1200405FA0EF307FA07
:102360000EF720FA04F83A0C25FA04F448EA0308B8
:10237000B4FBF2F14FEA184502FB11441FFA87FC47
:1023800045EA044501FB0CF3AB4200FA0EF409D90F
:10239000ED1901F1FF3080F08A80AB4240F2878076
:1023A00002393D44EB1A1FFA88F5B3FBF2F002FB49
:1023B000103345EA034500FB0CF3AB4207D9ED1996
:1023C00000F1FF386FD2AB426DD902383D44EB1AB1
:1023D00040EA01418FE7C1F1200722FA07F88B405C
:1023E00005FA01F448EA030320FA07FE4FEA134C0A
:1023F000FD404EEA040EB5FBFCF94FEA1E440CFB0F
:1024000019551FFA83F844EA054509FB08F4AC4264
:1024100002FA01F200FA01FA08D9ED1809F1FF30C9
:1024200043D2AC4241D9A9F102091D442D1B1FFA28
:102430008EFEB5FBFCF00CFB10554EEA054400FB8C
:1024400008F8A04507D9E41800F1FF3529D2A045C6
:1024500027D902381C4440EA0940A4EB0804A0FB39
:1024600002894C45C6464D4615D312D056B1BAEB3B
:102470000E0364EB050404FA07F7CB401F43CC407E
:10248000376074600021BDE8F0871846F8E6904692
:10249000E0E6C245EAD2B8EB020E69EB030501386B
:1024A000E4E72846D7E7404691E78146BEE7014684
:1024B00078E702383C4445E7084608E7A8F10208F7
:1024C0003D442BE7704700BF014B1868704700BFC1
:1024D000040C0020032A70B422D940EA01039B07B0
:1024E00011D003780C78A3421DD10A44013105E0D4
:1024F00010F8013F11F8014BA34214D19142F7D1DA
:10250000002070BC70470D680668AE420C4603465A
:1025100001F1040100F1040008D1043A032AF2D8C1
:10252000002ADED1ECE7181B70BC70472146184624
:10253000D7E700BF844641EA000313F003036DD1DF
:10254000403A41D351F8043B40F8043B51F8043B76
:1025500040F8043B51F8043B40F8043B51F8043B7D
:1025600040F8043B51F8043B40F8043B51F8043B6D
:1025700040F8043B51F8043B40F8043B51F8043B5D
:1025800040F8043B51F8043B40F8043B51F8043B4D
:1025900040F8043B51F8043B40F8043B51F8043B3D
:1025A00040F8043B51F8043B40F8043B51F8043B2D
:1025B00040F8043B51F8043B40F8043B51F8043B1D
:1025C00040F8043B403ABDD2303211D351F8043BBD
:1025D00040F8043B51F8043B40F8043B51F8043BFD
:1025E00040F8043B51F8043B40F8043B103AEDD26C
:1025F0000C3205D351F8043B40F8043B043AF9D2BD
:10260000043208D0D2071CBF11F8013B00F8013B8F
:1026100001D30B8803806046704700BF082A13D39C
:102620008B078DD010F003038AD0C3F10403D21AB4
:10263000DB071CBF11F8013B00F8013B80D331F8E8
:10264000023B20F8023B7BE7043AD9D3013A11F868
:10265000013B00F8013BF9D20B7803704B784370D3
:102660008B7883706046704770B4860746D0541EDE
:10267000002A41D0CAB2034602E014F1FF343BD332
:1026800003F8012B9D07F8D1032C2ED9CDB245EAD2
:1026900005250F2C45EA054519D903F110022646F8
:1026A000103E0F2E42F8105C42F80C5C42F8085CB9
:1026B00042F8045C02F11002F2D8A4F1100222F0F8
:1026C0000F0204F00F041032032C13440DD91E46E0
:1026D0002246043A032A46F8045BFAD8221F22F065
:1026E00003020432134404F003042CB1C9B21C44A5
:1026F00003F8011B9C42FBD170BC70471446034693
:10270000C2E700BF00000000F8B5144B1C68A36BC3
:1027100005461BB100221D615A61F8BD182000F06A
:1027200065F801220023A063C0E9042343F20E33BD
:1027300003800B2383810522034642814AF6CD376D
:1027400041F234264EF26D644DF6EC610022478072
:102750008680C48001811D615A61F8BD040C00208F
:10276000F8B51F4B1C68A16B91B10A691D484B69F4
:102770001D4C00FB02F004FB0300A2FB042301320A
:10278000034443F1000323F00040C1E90423F8BDF2
:10279000182000F02BF810A3D3E900230146A06312
:1027A0000126002743F20E354AF6CD34C0E904670E
:1027B00041F234204EF26D674DF6EC660D804C8090
:1027C00005250B248880CF8006480E814D818C81A1
:1027D000C1E90423F8BD00BF2E7F954C2DF451585C
:1027E000040C00202DF451582D7F954C024B0146CE
:1027F000186800F053B800BF040C0020024B0146DB
:10280000186800F003B800BF040C002091B151F823
:10281000043C0439002BB8BFC9181F4B1A68FAB121
:102820008A4230B40AD908680C18A24226D04A60FD
:10283000196030BC70478B4203D81A465368002B8E
:10284000F9D1146815198D420DD006D808680C18F6
:102850009C4219D04B605160EBE70C230360E8E722
:102860004A601960704709680C4411199942146054
:10287000DFD10ACB0C4453601460DAE71468526865
:102880004A6020440860D3E71C685B684B602044C2
:1028900008605160CDE700BF3812002070B5CC1C35
:1028A00024F0030408340C2C38BF0C24002C0646FA
:1028B0003BDBA14239D8274D296851B10A68121B68
:1028C00004D436E01A68121B1AD519464B68002B3F
:1028D000F8D16968002937D02146304609F02BFA33
:1028E000431C22D0C31C23F00305A84205D0291A9B
:1028F000304609F020FA013017D02C602B4604E056
:102900000B2A0DD91A6013441C6003F10B0020F050
:1029100007001A1D821A02D05142995070BD70BD35
:102920008B420ED05A684A60EFE70C2333600020D8
:1029300070BD0B2A03D84A680B462A60E5E70B46B0
:10294000E0E70A460B46F8E7304609F0F4F968601C
:10295000C2E700BF3812002001F0E0BE38B50D46D6
:1029600006F0ABF8044670B10C4B186800F0E1FAC1
:1029700058B10A2125B1A92000F032FC2C4602E012
:10298000AA2000F02DFC204638BD1DB14E2000F0DD
:1029900037FCF3E74B2000F033FCF4E75012002043
:1029A000FF23C0EB0042B2FBF3F241F27B439A42B9
:1029B0000AD892B20923B2FBF3F2114B1A60A8B9FC
:1029C0000221104807F037BB02F5235236320E4B76
:1029D0001202B2FBF3F202FB02F35A43120AB2F5FF
:1029E000803F14BF92B24FF6FF72E6E70548836856
:1029F00002215A434FF6FF73B2FBF3F207F00BBB11
:102A000044120020002A0020F52801000548064B4A
:102A100082681B68022153434FF6FF72B3FBF2F248
:102A200007F0F9BA002A00204412002002210148D0
:102A300007F001BB002A0020FF23C0EB0042B2FBDD
:102A4000F3F241F27B439A420AD892B20923B2FBD5
:102A5000F3F2114B1A60A8B90321104807F0EBBA42
:102A600002F5235236320E4B1202B2FBF3F202FB96
:102A700002F35A43120AB2F5803F14BF92B24FF6E6
:102A8000FF72E6E70548836803215A434FF6FF7358
:102A9000B2FBF3F207F0BFBA40120020002A002078
:102AA000F52801000548064B82681B680321534343
:102AB0004FF6FF72B3FBF2F207F0ADBA002A002026
:102AC000401200200321014807F0B5BA002A002077
:102AD00038B5164D16491748174C07F08BFA287869
:102AE00000F00700C0EB0020C0F38700FFF758FF9D
:102AF0004FF481724FF48071204608F038F928783D
:102B000000F00700C0EB0020C0F38700FFF794FF40
:102B100020464FF481724FF4007108F028F9FFF756
:102B2000D1FFBDE83840FFF781BF00BFF825002086
:102B3000280D0020002A00200004004808B501F0FC
:102B4000A3FA08B901F026FB01F0CDFA064B186094
:102B500010F0100018BFFF2005F04EFCFFF7B8FF83
:102B6000BDE8084001F035BBF825002008B505F0A8
:102B70003DFBBDE8084000F0FDB8000008B5084B7B
:102B800000221A6004214FF0100261F302021A7051
:102B9000186801F0ABFABDE8084001F0AFBA00BF19
:102BA000F825002010B50446FFF78CFFFFF73EFF25
:102BB000204600F0CDFD044600F0BBF9022806D007
:102BC000032808D0012804D1FFF76CFF01E0FFF7CC
:102BD0001DFF204610BDFFF719FFF5E745F6A75387
:102BE000984270B505460E461FD045F6A853984248
:102BF00048D045F6C34398423ED18B789BB105F04F
:102C0000F5FBFF282F4C54D1002005F0F5FB23786D
:102C100000226FF3041311461046237004F0C2FC27
:102C2000206801F063FA002070BD8B7823B3254C37
:102C300023785A1C02F00702042A94BF62F30203AD
:102C40006FF302032370207800F00700C0EB002030
:102C5000C0F38700FFF7A4FE207800F00700C0EB68
:102C60000020C0F38700FFF7E7FE206801F03EFA7E
:102C7000154B1868FFF796FF31462846BDE87040AF
:102C800000F046B88B78002BF6D00E4C2378C3F3B7
:102C9000C00181F0010161F3C30323701B0704D558
:102CA00000221146104604F07DFC206801F01EFA57
:102CB000E2E7FF2005F0A0FB237843F01003237028
:102CC000AEE700BFF825002050120020B0F5B84F45
:102CD0000BD00CD8B0F5804F13D3B0F5AA4F04D366
:102CE000A0F5B043B3F5007F0BD20020704745F646
:102CF000DF439842F9D006D8A0F5B8431D3B0E2B10
:102D0000F3D902F051BBA0F5C043B3F5005FEBE788
:102D1000042810B5044613D3722803D9A0F1740314
:102D2000302B0DD88B785BB1732000F075F9054A14
:102D30001378E0B20133137000F06EF9002010BD7B
:102D4000012010BD4812002004280FD3722802D998
:102D5000743830280AD88B7843B9054A1378013B78
:102D6000DBB2137013B9732000F0D8B9704700BFFD
:102D7000481200207F22FF21242005F09DBA012067
:102D8000704708B5FFF7E0FF08BD000013B502ABC0
:102D900003E903000F4B1B78B3B99DF8023000988C
:102DA00073B16AB100F06AFD04460146009800F074
:102DB0001FFD0099204602B0BDE8104001F072BB33
:102DC00000F03CFD0446F4E7009800F057FD009940
:102DD000F1E700BF4A120020034610B400885C8867
:102DE0000A4640EA044099885DF8044BFFF7CEBFDD
:102DF0000120704710B500210446FFF7EDFF214682
:102E0000FFF7BFFF10BDFFF7A7BD01F089BC7047FA
:102E100010B500F033FC02F0BFFA06F0CBF9002247
:102E200004460321094801F08FFEFFF7F0FF20461A
:102E300006F0C5F9F92805D901F014FEBDE81040E7
:102E400006F0CAB9642006F08EFFF0E76C0D002092
:102E500038B501210546FFF7BFFF29460446FFF7B5
:102E6000BDFE08B9002038BD2946204601F0A6FD68
:102E70000028F7D02946204602F032FB0028F1D086
:102E80002946204605F012FF0028EBD029462046AF
:102E900005F0B8FC0028E5D02946204605F078FE6C
:102EA0000028DFD02946204605F01EFC0028D9D096
:102EB000AB785BB145F65B539C421CD00AD8B4F5A5
:102EC000B84F12D045F6DF439C4211D02846FFF799
:102ED00056FF38BD45F65C539C420FD045F65D5316
:102EE0009C42F3D101F0B6F8F0E7FFF791FFB9E7A4
:102EF00001F050F9B6E701F0B7F8E7E701F0B7F8ED
:102F0000E4E708B506F0C5F805F066F800F03FF80C
:102F100001F0A8FD0120BDE8084005F033B908B56F
:102F200000F03AF8002005F02DF9BDE8084006F061
:102F3000B5B8030C002B16BF184600231023020A55
:102F40001CBF1046083302091EBF04331046DBB213
:102F500082081EBF02331046DBB242081CBF013399
:102F6000DBB218467047704708B5FFF7FCFF08BD95
:102F70000120704708B5FFF7FBFF08BD704710B58B
:102F80000446FFF7F1FF2046FFF7F4FF10BD08B538
:102F90000020FFF7F4FF08BD08B505F03FFFFFF77D
:102FA000EEFF08BD08B505F039FF044B19788142E2
:102FB00002D01870FFF7E3FF08BD00BF49120020E0
:102FC00030B587B08DE803009DF802306D460BB137
:102FD00000F082FF04AC0023636095E80300ADF8C5
:102FE000141089B20490ADF80C0021B182B24FF6F2
:102FF000FF739A4205D194E8030000F0B3FE07B0D6
:1030000030BD2046FFF7F4FE0028F4D1F7E708B5FD
:10301000008800F055FC08BD38B50446002876D07D
:10302000822816D105F0FAFE810770D4384C392178
:10303000206805F0B9FF00F07FFF42F2107006F043
:1030400092FE3921206805F0C9FFBDE8384000F044
:1030500073BF832810D105F0E1FEC20757D42C4C72
:103060005321206805F0A0FF00F066FF42F21070C7
:1030700006F079FE5321E5E7842810D105F0CEFE55
:10308000430744D4224C4721206805F08DFF00F00F
:1030900053FF42F2107006F066FE4721D2E7031F8D
:1030A000DBB2A02B10D81A4D0146286805F014FF9A
:1030B00028B12146286805F091FF00F03DFF214628
:1030C000286805F071FFC0E700F12003DBB2072B91
:1030D00007D800F007040120A040C0B200F0D6FEDF
:1030E000B3E700F15B03DBB2022B05D8094AD05CE1
:1030F000BDE8384005F0B2BE5834E4B2162C06D80C
:10310000054B33F81400BDE8384005F0B7BE38BDB4
:10311000880D00204CBF000850BF000810B50028E3
:103120005BD0822812D105F079FE810755D52B4C52
:103130003921206805F038FF00F0FEFE39212068B3
:1031400005F04CFFBDE8104000F0F6BE83280CD11E
:1031500005F064FEC20740D5204C5321206805F0DD
:1031600023FF00F0E9FE5321E9E784280CD105F0A4
:1031700055FE430731D5194C4721206805F014FF4F
:1031800000F0DAFE4721DAE7031FDBB2A02B03D8F9
:10319000124B01461868D3E700F12003DBB2072B7E
:1031A00008D8012300F0070003FA00F0C0B200F0D5
:1031B00075FEC7E700F15B03DBB2022B04D80020E9
:1031C000BDE8104005F04ABE5830C0B2162804D8F9
:1031D0000020BDE8104005F051BE10BD880D002054
:1031E00038B505460C46FFF717FF1CB92846FFF710
:1031F00095FF38BD6420013C06F0B5FDA4B2F4E7AC
:1032000008B539280CBF50210021FFF7E9FF08BDA0
:1032100008B528B100F03AFEBDE8084000F08CBEC9
:1032200008BD08B528B100F039FEBDE8084000F03F
:1032300083BE08BD2DE9F04790F806A08578814649
:103240000C4600F013FE4FEA1A1A0746C0B12F468B
:10325000B5B1C4F3072303F0F003402B04D004F10D
:103260002003DBB2072B1ED9A84B5B7858071AD472
:10327000022000F0BBFE00F0F9FD80F00100C7B2B3
:10328000C4F30338B8F10B0F3ED8DFE818F00E0096
:103290000E0043004300A9003D003D003D00D50065
:1032A0002D01410141010027EAE7C4F3072313F090
:1032B000F00F16BF2609C4F3032606F0F006E4B2A9
:1032C00085B156B104F12003DBB2072B304600D99B
:1032D0002CB900F0DBFD00F02FFE20463CE000F0B2
:1032E000EBFDF8E72046FFF719FF6EB104F120036C
:1032F000DBB2072B304600D914B900F0CFFD01E056
:1033000000F0E2FD00F018FEA8F10808B8F1030F84
:1033100076D8AFE0C4F3072303F0F003202B14BFEB
:103320002609C4F30326E4B218BF06F0F0063CB148
:10333000012C3DD0002D45D0BAF1000F3CD0CCE798
:10334000724B5B78590711D54DB126B1304600F06C
:103350009DFD00F0F1FD0020FFF75EFED4E728465A
:10336000FFF7DCFE002ECFD03046C6E79DB1BAF1A4
:10337000000F06D100F0B6FD3043C0B2FFF748FFA2
:10338000C2E7BAF1010FF5D100F0ACFD3043C0B295
:1033900000F0B4FDB8E7BAF1000F05D100F0C0FDB0
:1033A0003046FFF73EFFAFE7BAF1010FF6D1ABE7CA
:1033B00025B1BAF1010FA7D83046DFE7BAF1000F07
:1033C000A2D1EDE7BAF1000FEAD0392C0CBF4FF4CF
:1033D000FA50012006F0C7FC2046FFF79FFE93E756
:1033E000C4F381233BB1012B8ED11DB3C4F309007B
:1033F00005F044FD04E0DDB1C4F3090005F02EFD45
:10340000002F00F0E08000F029FD10F0010040F0F6
:10341000DA8089F8020000F019FD00F0AFF94846A3
:1034200000F0E6F800F012FDBDE8F04700F0B0B99A
:103430002846E3E72846DBE714F4407F28D1CDB9DE
:10344000C4F34210E2064FEA800048BF0F25C0B225
:1034500048BF854004F00F03C4F3812448BFED4307
:103460008340022C45EA03000CD00ED8012C06D074
:1034700000F05EF905F0D2FCFFF781FDC0E700F037
:103480004FF9F7E700F05CF9F4E700F046F9F1E7EF
:10349000F5B1C4F30023002BECD0C4F3421080003C
:1034A000C3B204F00F0000FA03F214F010001CBFC6
:1034B0000F209840C4F3812418BFC043022C40EA77
:1034C00002000BD00DD8012C05D000F07FF9D1E718
:1034D000C4F34023DFE700F071F9CBE700F07EF999
:1034E000C8E700F037F9C5E7E6B23DB1C4F3032001
:1034F00000F044F93046FFF78BFEBBE73046FFF79C
:1035000090FEC4F3032000F043F9B3E7FC2500204C
:10351000E6B2A6F1F003042B43D8DFE803F003255D
:103520001218210045B1BAF1000F7FF4EDAEC4F3DB
:10353000042000F039F9E7E6BAF1010F3FF6E4AEF6
:10354000F5E79DB1C4F3042000F022F9DCE625B1D3
:10355000C4F3042000F00DF9D6E600F007F9D3E635
:103560001A4B5B785B0706D5002DEBD0C4F3042023
:1035700000F004F9C8E64DB1C4F30424204600F07D
:10358000FDF80321204600F00DFDBDE6012000F00E
:103590002DFDBAF1010F7FF6B7AE022000F026FD37
:1035A000B2E625B1BAF1000FE0D03046D4E6BAF168
:1035B000000FC7D0392E0CBF4FF4FA50012006F08F
:1035C000D2FB304609E7BDE8F08700BFFC250020AC
:1035D00038B501880446807800F07EF9054600F091
:1035E00005F900F099F829462046FFF723FE38BD7B
:1035F00037B5858804460146022201A8FEF79AFFE6
:10360000F5B1BDF804204FF6FF739A4218D020465A
:10361000FFF71EFC70B900F029FC88B1A3787BB1DC
:10362000084B5B785B070BD4022003B0BDE8304049
:1036300000F0DCBC2046FFF7CBFF2046FFF7DAFBAB
:1036400003B030BDFC25002008B5002005F006FCC5
:10365000002005F013FC00F03FFCBDE8084000F03E
:103660006BBC000008B5044B186805F0D1FCBDE840
:103670000840FFF7E9BF00BF880D002008B500F043
:1036800015FCBDE80840FFF7EDBFC2B2C0F3033040
:103690000E3000F00F00092808D80123834040F2C3
:1036A0000330184004D113F010030BD100207047F1
:1036B000F02A02D003D8E72AF8D801207047F42A6C
:1036C000F4D1FAE7E72AF8D9F12AF6D0704708B51D
:1036D000008800F0F5F8FFF7D8FF08BD82B002AB14
:1036E00003E9030002B0704782B002AB03E90300B4
:1036F00002B07047704708B5FFF7FCFF08BD000037
:1037000008B5FFF7F8FF034B1860BDE80840FFF766
:103710009BBF00BF4C1200207047FFF7F1BF0000B5
:10372000024B1B681843FFF7EBBF00BF4C12002091
:10373000024B1B681840FFF7E3BF00BF4C1200208C
:10374000024B1B685840FFF7DBBF00BF4C12002044
:103750007047000008B5FFF725FA034B1860BDE875
:103760000840FFF771BF00BF501200200020FFF794
:10377000F1BF012303FA00F0FFF7ECBF012303FAC6
:1037800000F0024B1B681843FFF7E4BF5012002003
:10379000012303FA00F0034B1B6823EA0000FFF744
:1037A000D9BF00BF50120020012303FA00F0024BE2
:1037B0001B685840FFF7CEBF50120020024B1B6819
:1037C0001843FFF7C7BF00BF50120020024B1B6811
:1037D0001840FFF7BFBF00BF50120020024B1B680C
:1037E0005840FFF7B7BF00BF5012002070470000DD
:1037F000C0F3072303EB430300EB430303F0FF0392
:1038000037B503F0070201209040DB080A4A03EBBA
:103810008303C0B2134400245D7821FA04F242F31A
:1038200000026A40024001346A40052C03F8012F6F
:10383000F2D103B030BD00BF53120020C0F3072304
:1038400003EB430313B500EB430000F0FF0000F06F
:1038500007040949C00800EB80000022014410461B
:103860008B5CE34003F00103934001321843052AC7
:10387000C0B2F5D102B010BD541200200E4B73B58A
:103880001E680E4BADF804001B681F241E4326FA69
:1038900004F3DB0706D414F1FF34F8D200252846E0
:1038A00002B070BDE5B20199284600F00DFE80B26D
:1038B0000128F0D0F3E700BF501200204C12002086
:1038C00007B5ADF804000198FFF7D8FF019900F0A3
:1038D000FBFD03B05DF804FB13B50E4BADF804100F
:1038E0001B7823B10198FFF7EBFF02B010BD60B168
:1038F0000198FFF7C3FF044601460198FFF778FFE0
:103900000199204600F0E0FDEFE70198FFF796FFF0
:103910000446F5E74A120020F8B50C4B0C4E1C7813
:103920000C4D3378A34200D1F8BD05EBC40335F844
:1039300034005F889A88D98840EA074042EA01410A
:103940000134FFF7D1FE04F00704EAE7BB120020C0
:10395000BA1200207A120020064B10B418885C8836
:103960009A88D98840EA044042EA01415DF8044B54
:10397000FFF7BABE72120020244B9A7912092DE982
:10398000F3410CD19A7852B1214A224F1278224C3D
:10399000DFF888C04FF6FF7E3978914202D102B03D
:1039A000BDE8F0819D886DB318785E788DF80400CD
:1039B0008DF80560BDF80410714523D004EBC201F9
:1039C00091F80180B0451DD114F83260864219D1BA
:1039D0008878B8B98888401BBCF8005080B285420E
:1039E00010D99879012262F3071098718B790748F2
:1039F00062F307138B71FFF7FBFD02B0BDE8F041E6
:103A0000FFF78ABF013202F00702C5E772120020F9
:103A1000BB120020BA1200207A120020840D002070
:103A20002DE9F04F8FB0B64E0DF1200A0446014645
:103A300006225046FEF77EFDB388308821786278F2
:103A4000A778B4F804B0ADF80400B046002B00F03D
:103A5000038185B24FF6FF7E754500F0FD8096F834
:103A60000290B9F1000F00F0F780A64DABEB030315
:103A70002D889BB29D42B37940F2AC8013F0F00FD9
:103A800080B26ED1704514D035882088854210D11F
:103A90003D4677B9012262F30713B371FFF75CFF6C
:103AA0003046FFF7A5FDB379A37128460FB0BDE8F6
:103AB000F08F3D46BBF1000F49D08DF81C108DF8FA
:103AC0001D20BDF81C004FF6FF7398423FD0002F19
:103AD0003FD18D488D4B07781B788D48BB420FD165
:103AE0008DF821208DF820100898FFF7E9FEC0F32B
:103AF0000332C3B2032A1DD8DFE802F013132121D9
:103B000000EBC30696F801E0964506D110F833E0C5
:103B10008E4502D1B678002EC7D1013303F00703DA
:103B2000DCE710F4706F01D0002BBED02033DBB285
:103B3000072BBAD92046FFF75BFD4D46B5E710F4D9
:103B4000706FF3D0A27912F0F00FEFD1ADE7002F34
:103B5000ABD098F8063043F0010388F80630002512
:103B6000A3E7704510D03188228891420CD15FB90B
:103B7000A3712046FFF73CFD082221463046FEF7A0
:103B8000D9FCFFF7E9FED8E72046FFF7A0FDE8B132
:103B9000E7B198F806301F2B0DD9B8F80020ADF822
:103BA000282000228DF82A20ADF82CB08DF82E3078
:103BB0000AA8FFF71DFD082221465148FEF7BAFC6E
:103BC000FFF7DAFEFFF7C8FE01256EE72046FFF794
:103BD0000FFDF9E713F0F00514D18DF821208DF8D1
:103BE0002270ADF824B08DF820109AE80300FFF79A
:103BF00075FD3046FFF7FCFC082229463046FEF7EB
:103C000033FD63E080B270450ED031882288914246
:103C10000AD14FB92046A371FFF7EAFC08223946C2
:103C20003046FEF721FD88E72046FFF750FD0028CB
:103C3000CCD0002FCAD098F806301F2BBBD9B8F8CB
:103C40000020ADF8302000228DF83220ADF834B0DD
:103C50008DF836300CA8ACE7B8F80000ADF81400C9
:103C6000002B67D085B24FF6FF76B54262D098F848
:103C70000250002D5ED1DFF88CE0ABEB0303BEF801
:103C800000E09BB29E4545D93D46002F9ED080B2B4
:103C9000B04224D0B8F8002023889A421FD198F867
:103CA0000630DA0715D41A0913D0A3711B090F2B9C
:103CB0001FBFA279013363F30712A2712046FFF7F9
:103CC00097FC082221460E48FEF734FCFFF744FE1D
:103CD000EBE6082221460A48FEF72CFCE5E62046E2
:103CE000FFF7F5FC00287FF466AF98F80630204611
:103CF00043F0010388F80630FFF77AFCD5E600BFF1
:103D000072120020840D0020BA120020BB12002085
:103D10007A1200208DF821208DF82270ADF824B0A1
:103D20008DF820109AE80300FFF7D8FC08222946F6
:103D30000B4864E7002F3FF449AF2046FFF7C7FC6C
:103D4000054600283FF442AF082221460448FEF70A
:103D5000F1FB0348FFF75BF9FFF70EFEB6E700BF84
:103D600072120020F0B587B08DE803006846FFF7B7
:103D700057FE324E324D0746B0B1BDF80430BDF8A3
:103D80000020ADF8082043B192B24FF6FF739A427B
:103D900003D09DE80300FFF7A7FC2A4C287833786E
:103DA000834227D107B0F0BD9DE8030004AB83E850
:103DB0000300BDF80420BDF81010ADF80C10002A67
:103DC000EBD088B24FF6FF718842E6D03078297880
:103DD000441C04F007048C4226D01946194BADF858
:103DE000142003EBC0000822FEF7A4FB3470FFF799
:103DF00093FDD2E704EBC000FFF712FE0028D1D0FC
:103E00002B7834F8330004EBC3035F889A88D98891
:103E100040EA074042EA0141FFF766FC2B78013394
:103E200003F007032B70B9E7FFF728FC0822394697
:103E3000054837702F70FEF717FCB3E7BA12002061
:103E4000BB1200207A12002072120020024B93F95C
:103E50000000C0F3C7007047FC120020024B187826
:103E600000F00700704700BFFC120020034B1878D9
:103E700010F0070018BF0120704700BFFC1200209F
:103E8000014B1878704700BFFE120020024A1378D9
:103E900018431070704700BFFE120020024A1378CA
:103EA00023EA000010707047FE120020014B002230
:103EB0001A707047FE120020024A137818431070DF
:103EC000704700BFFF120020024A137823EA000067
:103ED00010707047FF120020014B00221A707047CB
:103EE000FF120020014B1878704700BFFD12002020
:103EF000704708B5FFF7FCFF08BD000008B5064B8A
:103F00005B785B0706D4054B1978814202D01870A4
:103F1000FFF7EFFF08BD00BFFC250020FD120020C9
:103F200008B5044B1A781AB100201870FFF7E1FFAA
:103F300008BD00BFFD12002010B5124B12491B78BE
:103F40000978124C0B43124920680978037031B18B
:103F50000B43037004F0A2FF08B1FFF7E1FF2468F0
:103F60000C4920222046FEF7B5FA48B1214620220E
:103F70000848FEF7DFFA2046BDE8104004F056BFBF
:103F800010BD00BFFE120020FF120020880D00208F
:103F9000FD120020DC120020704708B5FFF7FCFF7F
:103FA00008BD00000A4A5278520710B50CD4094CDB
:103FB00041EAC0012170FFF7E1FB94F90000C0F372
:103FC000C700FFF7EAFF10BDBDE81040FFF7D6BB02
:103FD000FC250020FC12002008B5034B00201870BF
:103FE000FFF7DBFF08BD00BFFC12002008B50C4A3C
:103FF00092F9003023EA000040B2107042070ED15F
:10400000DBB283420BD0074B5B785B0707D4C0F36E
:10401000C700FFF7BDFBBDE80840FFF7DDBF08BDE7
:10402000FC120020FC250020094A08B55378C3F390
:10403000800181420AD060F382035370108800F03F
:104040003FF80220BDE80840FFF7D0BF08BD00BF21
:10405000FC250020034B587880F00400C0F380005A
:10406000FFF7E2BFFC2500200120FFF7DDBF0020A5
:10407000FFF7DABF08B501F071FD4FF6FF710020C0
:10408000BDE8084001F0AABB08B5002001F03DFBE7
:104090004FF6E963C31A5842584108BD022001F0A7
:1040A00025BB032001F022BB10B5042001F01EFB4C
:1040B0000446222001F01AFB44EA002080B210BD21
:1040C00010B5C1B20446042001F07AFB210A222077
:1040D000BDE8104001F074BB072001F007BB0146AA
:1040E000072001F06DBB0F2001F01EBB01460F2021
:1040F00001F082BB0146132001F07EBB0020FFF7D8
:10410000F9BF000010B501F029FD4FF6E96100206C
:1041100001F064FB0021022001F052FB002103208A
:10412000002401F04DFB1A4B214604201C6001F0D5
:1041300047FB2146222001F043FB2146052001F0E8
:104140003FFB2146062001F03BFBFF21072001F049
:1041500037FB2146082001F04FFB21460D2001F0DE
:104160002FFB2146182001F047FB2146172001F0C4
:1041700027FB21461C2001F03FFB2146202001F0B7
:104180002DFB2146182001F037FBFEF7F7FC10BD90
:104190004C120020FFF7B6BF01460E2001F010BB05
:1041A00008B504F0CFFF024B1860024B186008BD41
:1041B000041300200813002008B504F0C3FF024BCD
:1041C0001860024B186008BD041300200013002083
:1041D0007047704708B5054800F05EFA01F0BCFC76
:1041E000FFF7F6FFFEF7AAFC08BD00BF91460008E6
:1041F0000120704708B5FFF7FBFF08BD7047704707
:1042000008B5FFF7FBFFFFF7FAFF08BD08B500F0A0
:1042100065FAFEF7B3FE00F00DFDBDE8084003F0BF
:104220006DBF08B504F08CFF00F01AFBFFF7EEFF3E
:1042300004F046FCFEF79AFC08BD00002DE9F04FA3
:1042400085B000F027FB074608B1FFF7A9FFDFF8AC
:10425000CC800024C146E6B2304600F065FA14F87E
:1042600008A05045834616D10134082CF3D1FF2312
:104270008DF808308DF8093000238DF80A3004F0ED
:1042800099FF40F00100ADF80C0004AB13E9030006
:10429000FEF796FE34E0204B1B789B0701D500F01B
:1042A00049FA002301258BEA0A010D425FFA83FADD
:1042B0002CD0FFF79FFF0BEA050B98B11BF1000311
:1042C00018BF01238DF800A08DF801608DF8023031
:1042D00004F070FF40F00100ADF804009DE8030019
:1042E000FEF76EFE19F804301BF1000285EA0305A3
:1042F00018BF01225146304609F8045003F08CFAE9
:10430000381C18BF012005B0BDE8F08F01336D00E7
:10431000062BEDB2C9D1A7E7141300200C1300201F
:1043200008B5FFF78BFF01F079F803F055FE04F0B4
:10433000E7FB08B1FFF740FFBDE80840FEF732BEDB
:1043400010B500F0CDF8B0F5A44F04462AD2B0F570
:10435000A24F7AD2E72817D8E0285FD2A72808D83A
:10436000A52855D2012859D001D3042856D20024BB
:1043700054E0BE28FBD85834E4B2484B33F814401C
:1043800044F48844A4B249E0B0F5A04F4DD2B0F552
:10439000804F45D2A0F58073B3F5F85FE7D2C0F344
:1043A0000C043BE0B0F5AC4F13D2B0F5AA4FC0B24D
:1043B00060D2B4F5A84F58D2B4F5A64F4BD38308BA
:1043C000012400F00300844044EA431444F40A4406
:1043D000D8E7B0F5B44F0AD2B0F5B24F52D2B0F52B
:1043E000B04FC4D34AF2F00040EA0424CAE7A0F573
:1043F000C043B3F5005FBAD2C0F3042000F0F2F876
:10440000E4B2000244F4005400F4F850044305E020
:104410005B34E4B2224B1C5D44F48044204610BD62
:10442000C0F30B0444F42044F8E7C2B202F00301E5
:1044300001238B40C0F3011443F40C4343EA0424EA
:10444000C2F3810244EA42149CE7C4B24AF2F1008A
:1044500040EA0424E2E78308012400F003008440DA
:1044600044EA431444F40C448CE74AF2F40444EA6A
:104470000024D3E700F0B6F8040204F4F85444F43E
:104480000054CBE700F00F0000F0ACF8C4F30314C5
:1044900040EA042444F4104474E700BF82BF0008DB
:1044A0007EBF000830225043C1F30723062202FBDF
:1044B000030353FA81F3034A32F8130082B002B0C7
:1044C000704700BF8CBE000807B5ADF80410019915
:1044D000FFF7E8FFFFF734FF03B05DF804FB0000CF
:1044E000822825D00CD8312863D004D8292859D067
:1044F0002A2865D0704735284DD0392818D0704704
:10450000E32830D004D8E02819D0E22826D070471C
:10451000E62832D0E72835D0E42832D1304B5A781B
:1045200091072ED51B7813F0100F08BFE72012E07B
:104530002B4B1B7813F0030F18BFE0207047284A5D
:104540001378D90743D4527812F0010F19D013F021
:10455000100F08BFE32018BF00207047204B1B78C6
:1045600013F0040FF2E71E4A1378590731D452783A
:10457000D20730D413F0100FEDE7194B1B781A0750
:10458000D1D47047164A1378190726D45278920767
:10459000F0D5E420F5E7124B1B7813F0200F18BF7D
:1045A000292070470E4B1B7813F0200F18BF3520C1
:1045B00070470B4B1B7813F0400F18BF2A20704731
:1045C000074B1B7813F0400F18BF3120704739207C
:1045D0007047E2207047E0207047E620704700BF38
:1045E000FC250020294B1A78510707D500F0180147
:1045F000082927D100F0F70040F00400110707D583
:1046000000F01801182926D100F0E70040F014004E
:104610005B78D90707D500F01801082924D100F0EC
:10462000F70040F00100990707D500F01803182B98
:1046300023D100F0E70040F01100D30648BF00F09E
:10464000E700704700F01401042904BF00F0FB00EC
:1046500040F00800D2E700F01401142904BF00F074
:10466000EB0040F01800D3E700F01101012904BF6E
:1046700000F0FE0040F00800D5E700F01103112B18
:1046800004BF00F0EE0040F01800D6E7FC25002043
:104690000020704700207047014B1860704700BF32
:1046A0008C0D0020FFF7E6BC08B500F0F3F84FF4DE
:1046B0007A7005F058FB00F0EDF8002000F034F8B7
:1046C000C30705D5FFF7EEFFBDE8084004F084BD41
:1046D00008BD08B5FFF7E8FF08BD000008B5FFF703
:1046E000D3FC08B9FFF756FDFFF7D8FC084B18704C
:1046F000FFF7DAFC074B1880FFF7EBFFFFF7D1FC61
:10470000FFF70BF8044B1868BDE80840FEF74ABAFB
:1047100014130020FC250020501200207047704721
:1047200008B5FFF7FCFF08BD014B185C704700BFE0
:10473000062600207047032005F015BB00BF00BF10
:1047400000BF00BF00BF00BF00BF00BF00BF00BF71
:1047500000BF00BF00BF00BF00BF00BF00BF00BF61
:10476000704708B5FFF7E7FF08BD08B5202282F3C0
:104770001188012100F00F03994020F00F0006F08E
:10478000F6FA002383F3118808BD000038B50B4DFD
:10479000002455F82400421C01D0FFF7E6FF013445
:1047A000082CF6D1064D002455F82400431C01D0F6
:1047B000FFF7DBFF0134062CF6D138BDC8BF000877
:1047C000B0BF00082DE9F843234B0E4653F82110E3
:1047D0000746481C98463AD0202383F311880125C8
:1047E00021F00F0901F00F0105FA01F421462A46D4
:1047F0004846A4B206F0BBFAA9F81A40002484F394
:104800001188FFF79BFF1548234650F823104A1CD8
:104810001FD021F00F0201F00F01126922FA01F1FD
:10482000CA0716D46AB2013322436D00062BD4B2F4
:10483000EDB2EAD158F82600431C01D0FFF795FFEE
:10484000211C18BF01213046FFF78BFFBC55BDE886
:10485000F8830022E7E700BFC8BF0008B0BF000828
:1048600010B50824FFF792FF224600210748FDF704
:10487000FBFE224600210648FDF7F6FE204600F02A
:1048800033F8BDE81040FEF7BEBA00BF0626002090
:10489000FE25002037B5002400940194E1B268465B
:1048A0000134FFF78FFF082CF8D1224669460C48E7
:1048B000FDF710FE002814BF0125002504D0224674
:1048C00069460748FDF736FE2B460822054904488D
:1048D00000F00CF8FEF799FA284603B030BD00BF8F
:1048E000FE2500200626002070470000F8B5064689
:1048F0000F4615460C4C2BB10123237004F022FC0B
:104900000A4B1860237853B1084B186804F05EFC1A
:10491000042804D90023AB4202DB00232370F8BD36
:10492000F25CFA540133F6E7151300201813002047
:1049300008B504F049FFFFF774FCBDE8084004F037
:1049400059BF08B504F05CFFFFF7EAFCBDE808407A
:1049500004F076BF08B504F0B7FB04F033FFFFF7AF
:1049600039FCFFF7E5FFFFF7ECFFFFF749FCFAE73B
:10497000453807EE900AF8EEE77AB2EE087AC7EE0D
:10498000876A08B516EE900AFDF7C2F89FED080B8E
:1049900041EC110BFBF718FD002251EC100B064BFC
:1049A000FDF70AF9FDF7B8FB00EE100A08BD00BFDD
:1049B000000000000000004000807B4008B545F684
:1049C0001D43984205D18B7873B300F04DFA002057
:1049D00008BD45F61E43984204D18B7823B300F0FE
:1049E00059FAF4E745F61F43984206D18B78DBB1BC
:1049F00000F030F80028F2D1E7E745F62A43984264
:104A000009D18B7883B100F0B1FC00220421074862
:104A100000F09AF8DBE745F62B43984204D18B78F7
:104A200013B100F0A9FCF0E7012008BD900D0020B3
:104A300008B5FFF79DFFBDE8084000F011BA08B5C2
:104A4000FFF796FFBDE8084000F022B900F00AB871
:104A500070477047024B187800F00100704700BFA4
:104A60008826002038B50D4D2C78ACB90C4B1C7045
:104A700000F056FC0B4B0C491C700C4B1C700C4B83
:104A80001C800C4B03F160021C8059601C810C33AC
:104A90009342F9D101232B7038BD00BFB00D002027
:104AA0001C13002025130020000080BF26130020C7
:104AB0002213002028260020014B1878704700BFE1
:104AC0001C1300200B4B1B7883420FD9013B1B1A90
:104AD00009485BB20C2202FB030393ED010AB5EE19
:104AE000C00AF1EE10FA01D900F04CBC9FED030AA8
:104AF000704700BF1C130020282600200000000083
:104B00000E4B07EE900A1B78F8EE676ADFED0C7A21
:104B10009B0166EEA76A07EE903AF8EEE77A82B05C
:104B200086EEA77ADFED077A67EE277AFCEEE77A62
:104B3000CDED017ABDF8040002B07047D40D00201D
:104B40000000704200007A44244B1B78DB07F7B565
:104B500004460F46154604D403B0BDE8F040FFF705
:104B600081BF1F4B1B780BB900F064F81D4B1B78FD
:104B70000BB1FFF777FF1C4BD4ED017A1B4E0122DE
:104B80001A701B4A3460002313701A4AFCEEE77A4D
:104B90001780194ACDED017A1570184DBDF8040043
:104BA0002B80FFF7ADFF94ED000A00F0D1F804F080
:104BB00001FB134B2A881880336803EBC203D3ED43
:104BC000017AFCEEE77ACDED017ABDF80400FFF73B
:104BD00097FF0C4B188003B0F0BD00BF8826002063
:104BE0001D1300202613002025130020242600205A
:104BF0002413002010260020892600201E130020E8
:104C0000201300202213002008B5074B1B78DB0778
:104C100004D5002205210548FFF796FF04F0CAFAE3
:104C2000034B188008BD00BF88260020D80D002047
:104C30002013002010B5124C2378FBB9FFF724FA9B
:104C400008B9FFF7A7FAFFF747FA0E4B18700E4B9B
:104C50000E4803F1600100221A8058601A810C335B
:104C60008B42F9D123781BB900F014FB0123237088
:104C7000FFF7F8FEBDE81040FFF7C6BF10BD00BF4C
:104C80001D1300208826002028260020000080BF59
:104C9000F8B5274DB5EEC00A2B78F1EE10FA2DEDE0
:104CA000028BB0EE408A48BFB1EE408A002B3BD069
:104CB000204B1B780BB9FFF7BDFF1F4A0723104697
:104CC000D2ED167AB4EE678AF1EE10FA27D10C21F4
:104CD00059430022431842521849DFF870E05960E6
:104CE0001A810E46144673450ED1154B01261E70CF
:104CF000144B1C78013CE4B21C70ACB900F010FB02
:104D0000114B2C701E700FE003F10C0797E80700A1
:104D10009C8183E807001E619C823B46E3E7013BE0
:104D2000591CA2F10C02CBD1BDEC028BF8BD00BF27
:104D3000261300201D13002028260020000080BF1D
:104D4000271300201C130020B00D00207C2600201B
:104D50002DE9F0413A4B1B78DB072DED028B07461E
:104D6000B0EE408A47D5374B1B780BB9FFF762FF8F
:104D7000354D364E2B78B5EEC08AF1EE10FA03EBC6
:104D8000430248BFB1EE488A03F1FF3806EB8202C6
:104D9000B8F1FF3F20D10133DBB2082B42D82B7092
:104DA0002B4A012313702B4A13702B785C1E04F0DE
:104DB00001FA0C236343F218F05282ED018A178145
:104DC00004F0F8F9244C254B188023789BB100F0AF
:104DD000ADFA002323700EE00C3AD2ED017AF4EE26
:104DE000487AF1EE10FA1AD10C2404FB08642B78EF
:104DF000013B984503DBBDEC028BBDE8F08104F17B
:104E00000C0696E8070084E8070004F0D3F908F1DF
:104E10000108A08184ED048AA7823446E7E708F1FF
:104E2000FF38B5E708232B700023F41804F10C02B7
:104E300007CA0C33542B84E80700F6D1B0E700BF53
:104E4000882600201D1300201C1300202826002087
:104E50002713002026130020B00D0020701300201F
:104E60004FF6FF70FFF774BF08B5084B187840F095
:104E700001001870FFF733F9FFF7EAFD0022022165
:104E80000348BDE80840FFF75FBE00BF882600204A
:104E9000C40D002008B5002202210A48FFF754FE85
:104EA000FFF7D7FD42F2107004F05DFFFFF7DAFD67
:104EB000054B18786FF300001870BDE80840C0B2C9
:104EC000FFF70DB9B40D002088260020674B1A7833
:104ED0002DE9F3479846664C12B92578002D70D01D
:104EE00004F068F927788146F7B9002798F8003070
:104EF000002B00F0B8805F4B1D7825B95E4B1D7804
:104F0000002D08BF3D465D4C5D4F00264FF6FD78F5
:104F10003B789E42C0F295805A4A1378002B50D0BD
:104F2000002111701D464CE0574D584E288804F062
:104F300046F933888342D8D8288804F040F9A5F888
:104F40000090534D3488B5F800A00AF10103041B0A
:104F50002B8004F02FF94F4B18804F4B19882B886A
:104F60008B42A4B2A94605D34C4B1D783DB3002318
:104F7000A9F800304A4A4B48137815462BBB036802
:104F8000B9F800C003EBCA0E03EBCC039EED007A28
:104F9000D3ED007AB4EE677AF1EE10FA15D1012361
:104FA00002201370FFF7ACFD9FED3F0AFFF7D0FE24
:104FB0000220A9F800A0FFF7A3FD308096E7FFF7D5
:104FC00051FD284602B0BDE8F087002302682B702F
:104FD000B9F8003002EBC303D3ED017AFCEEE77AB7
:104FE000CDED017ABDF80400FFF78AFD0139844256
:104FF0000DD8844222D30124B9F8003002EBC30259
:10500000204692ED000AFFF7A3FE34806EE7B9F860
:1050100000308B42EDDA01339BB2A9F8003002EB8D
:10502000C303D3ED017AFCEEE77A201ACDED017AC5
:1050300084B2BDF80400FFF763FDD8E7001B84B21B
:10504000DAE72389013B9BB2434509D8208804F065
:10505000B6F82389834203D894ED010AFFF718FEBE
:1050600001360C3454E73D4656E700BF26130020B6
:10507000251300206D1300206C130020282600202B
:105080001C130020271300202013002022130020CF
:105090001E130020701300201026002089260020F7
:1050A000241300202426002000000000014804F002
:1050B0007DBC00BF00C200082DE9F0412DED048B3E
:1050C000294B1E7882B0002E46D09FED259B0025EF
:1050D000DFF8A880254F9FED268ADFED268A2C4633
:1050E000EBB29E4205D8204602B0BDEC048BBDE871
:1050F000F081F8EC017A67EE887AF0EE086A67EEE4
:10510000A87A013577EEA77A87EEA67AD7ED007AEE
:1051100077EE277A17EE900AFCF7FAFCB0EE491A00
:10512000F0EE691A41EC100BFBF7E8F851EC100BAC
:10513000FCF7F2FF07EE900AFCEEE77A0E4ACDED9F
:10514000017ABDF8043047F8040B32F8133093FBB2
:10515000F6F31C44A4B2C3E740F2FF74C3E700BFF8
:105160000000000000007040481300204C13002095
:105170000000804300008038E8BF000828130020AA
:1051800003782DE9F04785683E4C3F4F042B08BF5C
:1051900005F5807505F58078A84511D1FFF796FED5
:1051A00020B12378042B1CBF022323702378052B06
:1051B00065D9082B58D13548BDE8F04704F0D6BE74
:1051C0002378052B04D940F2FF732B800235E3E7E7
:1051D000FFF772FF00F12803B3F5006F288009D3B1
:1051E00040F62603984205D8237823BB3B780BB1C1
:1051F000012323702378002B3CD140F2FF732B80D6
:10520000FFF75AFC08281CD8FFF756FC81460026F9
:10521000DFF87CA03E70F0B2484515D33B7823B947
:105220002378052B04BF062323702378032B04BFA8
:1052300001232370CAE7022B1AD10323D9E70523E0
:10524000D7E74FF00809E2E7FFF73CFCB5EEC00AEC
:10525000F1EE10FA06DD3B785A1C0AEB83033A7034
:1052600083ED000A0136D6E701332370BDE8F087ED
:10527000042BE4D0052BC3D0032BA7D1C0E7BDE896
:10528000F08700BF0010002048130020D029002024
:105290002813002070B51B4C1B4E1C4D03221021FF
:1052A0004FF0904005F063FD3146204604F018FEB3
:1052B000032220214FF0904005F059FD3146284649
:1052C00004F00EFEA36A12491A68136823F0020361
:1052D0001360AB6A1A68136823F40033136028461E
:1052E0004FF480730B4A04F00BFE2046002140F27D
:1052F000FF7204F003FE08490848BDE8704004F05E
:1053000015BE00BF3C290020E8C100086C29002020
:10531000F0C10008000E002014C20008D0290020AF
:10532000014B04221A7070470010002008B50221BA
:10533000094804F00DFE094B094A03F12000002141
:1053400043F8041B834242F8041BF9D1054A0023A9
:105350001370054A137008BDD02900204C1300209B
:10536000281300204813002000100020014B0022C9
:105370001A7070476E130020014B00221A7070479C
:105380006E130020024B1B780BB9024A1370704752
:105390006E1300206C130020024B1B780BB1FFF73B
:1053A00055BB704773130020FE288CBF00200120DE
:1053B0007047000008B5FFF7EFFF044B04480022D8
:1053C0001A700821BDE80840FFF7BEBB7313002028
:1053D00028110020034B0448002208211A70FFF70F
:1053E000B3BB00BF721300200410002010B5FFF7FC
:1053F000D3FF084A08481378013303F003031370FE
:10540000282404FB030000220521BDE81040FFF71B
:105410009BBB00BF8410002088100020F8B5174BFC
:105420001B7803B3164C2088F0B903F0C3FE20802C
:10543000144C154E2378F3B93278013A134D1449C0
:105440002878CF5C10B1885CFFF7F9FA2B7813B19C
:105450003846FFF7EDFA23783178013393FBF1F208
:1054600001FB12332370F8BD03F0A9FE094B1B8822
:105470008342DAD3F8BD5A1EE0E700BF851300204F
:105480008A13002086130020841300207313002049
:1054900074130020AC1100207047000008B5054BC4
:1054A000054801221A7008210022FFF74DFBFFF783
:1054B000F3FF08BD731300206C110020704700003B
:1054C00008B5054B054801221A7008210022FFF794
:1054D0003BFBFFF7F3FF08BD7213002044100020D0
:1054E0002DE9F04345F6264398428BB0054606D198
:1054F0008B78002B3ED0FFF7D1FF002053E045F61C
:105500002743984205D18B78002B33D0FFF752FF09
:10551000F3E745F62843984206D18B7853B3644BA2
:105520001B78002BF2D1E6E745F62C43984204D1D4
:105530008B78FBB1FFF7C4FFDFE745F62D439842B8
:1055400004D18B78B3B1FFF745FFD6E745F62E437C
:10555000984206D18B786BB1564B1B78002BF2D159
:10556000E8E745F62943984204D18B7813B1FFF759
:105570003DFFC2E74E4B1E7826B94E4B1B78002BE1
:1055800000F093808F78002F3DD0E02D0ED1FFF7F3
:1055900003FF494B01221A70484B00201870484BFA
:1055A0001870484B18700BB0BDE8F083E22D0BD19A
:1055B000FFF7F2FE404B1A7812B1404A01211170F8
:1055C000002018703E4BEDE7E32D0FD13B4B1B78CD
:1055D000CBB1FFF7E1FE384B00201870384B0122A9
:1055E0001A70394B1870394B1880DCE7522D04D1F2
:1055F000374A13880A3B13807FE7512D03D1344A81
:1056000013880A33F7E7334B334A1C7833484B7817
:10561000DFF8D4E00978FCB9147802682434144423
:10562000062202FB03E35B5C1C44E4B2002F36D08D
:1056300016B12046FFF7FCF91F4B1B782BB1214A0E
:1056400027491378CC54013313702846FDF73EFBED
:1056500080F00100C0B2A6E792F80090062404FB97
:1056600003E309F12409047813F801801D4923227A
:105670005FFA89F901A8FCF75DFF4C440723B8FBEA
:10568000F3F303EB4302C3EBC30304EB8204A8EB85
:1056900003030AAA52FA83F313F8243CC4E7002E4A
:1056A000D3D02046FFF7CBF9CFE701207BE700BF3F
:1056B000731300207213002088130020871300202A
:1056C0008513002084130020861300208A130020F5
:1056D000AC11002084100020AE11002068110020C1
:1056E0007413002058BD0008A0BD000807B502AB28
:1056F000002203F8012D01460122184600F030FA7D
:105700009DF8070003B05DF804FB07B502AB00226B
:1057100023F8022D01460222184600F021FABDF8B6
:10572000060003B05DF804FB07B502AB002243F8A6
:10573000042D01460422184600F012FA019803B025
:105740005DF804FB07B502AB012203F8011D014619
:10575000184600F03DFA03B05DF804FB07B502AB54
:10576000022223F8021D0146184600F031FA03B068
:105770005DF804FB07B502AB042243F8041D0146A3
:10578000184600F025FA03B05DF804FBF8B5D31D08
:1057900023F0070300AFADEB030D05461446684642
:1057A0000E4600F0DDF9224669462846FCF792FED7
:1057B00020B122463146284600F00AFABD46F8BD1F
:1057C00038B50C460546FFF791FFA04205D02146AB
:1057D0002846BDE83840FFF7B5BF38BD38B50C46A0
:1057E0000546FFF792FFA04205D021462846BDE8B6
:1057F0003840FFF7B3BF38BD38B50C460546FFF754
:1058000093FFA04205D021462846BDE83840FFF767
:10581000B1BF38BD10B500F097FA094C094800F047
:105820004BFA094800F048FA204600F045FA0748CC
:1058300000F042FA00F096FA054B1C6010BD00BF64
:1058400000F0030800E0030800E8030800F803087C
:105850008C23002038B54FF6FE73034003F100653A
:1058600005F578354FF6FF712A888A4210D10A492A
:10587000CC5AE443A4B294420CD000F065FA21461D
:10588000284600F03BFA044600F06CFA204638BD8A
:10589000002038BD052038BD8C130020F8B5FFF777
:1058A000B9FF00F051FA0C4C0C4F0D4E052504F1D8
:1058B0007843A3F57833F95A39B1C94389B2204600
:1058C00000F01CFA052818BF05460234B442EED198
:1058D00000F048FA2846F8BD00E003088C130020C9
:1058E00000F00308F8B51C4B1C4F1E5A3A68012EF5
:1058F0009ABF1B4D02230423C3F1006394BF45EA02
:105900004635803803F5802392BFADB280B24FF4A4
:1059100060459A4203D9BDE8F840FFF7BFBF45EAAA
:10592000500400F011FA38682146831C3B6000F0F7
:10593000E5F9B5F5604F044609D13868F143831C99
:1059400089B23B6000F0DAF9052818BF044600F080
:1059500009FA2046F8BD00BF8C1300208C230020DC
:105960000080FFFF38B50D4C0D4B22689A4205466A
:1059700003D9BDE83840FFF791BF00F0E5F9094BC6
:105980002068595D41EA0521831C89B2236000F03B
:10599000B5F9044600F0E6F9204638BD8C23002016
:1059A000FFFF03088C1300202049214B2148F0B54C
:1059B000214E0D465A889C190233D24383420A5322
:1059C000F8D11E4A1E4C4FF6FF7743F6FE76138839
:1059D000BB4206D0180409D4190A6B540232A24201
:1059E000F5D9184B4FF480501A60F0BD03F4C04154
:1059F000B1F5C04F0FD1901CA04215D85188C943B2
:105A000089B279B106EA430380330246B3F5805F79
:105A1000E4D2E952E2E75904E0D4C3F3403106EAA4
:105A20004303F3E70246D9E70246DAE78C13002086
:105A3000FEDF0308FEEF03080220FCF700F0030876
:105A4000FFFF03088C23002008B5FFF7E3FEBDE845
:105A50000840FFF7A9BF0000B0F5805F10B504460D
:105A600014D20C4B1A5C8A4212D01954FFF7F2FE82
:105A700078B97F2C04D82046BDE81040FFF772BFEC
:105A800024F00100BDE81040FFF72CBF072010BD37
:105A9000002010BD8C130020B0F5805FF8B50546DE
:105AA0000E4631D210F001030CD0C9B2FFF7D4FF7B
:105AB0000446681C310A80B2FFF7CEFF052808BFF4
:105AC0002046F8BD134A175AB9421FD05153FFF769
:105AD000C1FEF0B97F2D12D8FBB2F2B293420CD0C6
